:020000040800F2
:1000000060DD00209D010008F5200008A71700080A
:10001000F1200008E7060008FD3A00080000000093
:100020000000000000000000000000004521000862
:10003000EB06000800000000F72000084721000838
:10004000B7010008B7010008B7010008B7010008B0
:10005000B7010008B7010008B7010008B7010008A0
:10006000B7010008B7010008B7010008B701000890
:10007000B7010008B7010008B7010008B701000880
:10008000B7010008B7010008B7010008B701000870
:10009000B7010008B7010008B7010008B701000860
:1000A000B7010008B7010008B7010008B701000850
:1000B000B7010008B7010008B7010008B701000840
:1000C000B7010008B7010008B7010008B701000830
:1000D000B7010008853A0008B7010008B701000819
:1000E000B7010008B7010008B7010008B701000810
:1000F000B7010008B7010008B7010008B701000800
:10010000B7010008B7010008B7010008B7010008EF
:10011000B7010008B7010008B7010008B7010008DF
:10012000B7010008B7010008B7010008B7010008CF
:10013000B7010008B7010008B7010008B7010008BF
:10014000B7010008B7010008B7010008B7010008AF
:10015000B7010008B7010008B7010008B70100089F
:10016000B7010008B7010008B7010008B70100088F
:10017000B7010008B7010008B7010008000000003F
:10018000B7010008B7010008DFF80CD000F016FA3C
:1001900000480047DD41000860DD00200648804738
:1001A00006480047FEE7FEE7FEE7FEE7FEE7FEE75C
:1001B000FEE7FEE7FEE7FEE73122000889010008BE
:1001C0002DE9F05F0546002092469B46884606468C
:1001D000814640241BE0284641464746224600F01F
:1001E0002EF953465A46C01A914110D3114618466B
:1001F000224600F015F92D1A67EB01084F462246FA
:100200000120002100F00CF917EB00094E41201EDF
:10021000A4F10104DFDC484631462A464346BDE8E6
:10022000F09F40EA01039B0703D009E008C9121FB1
:1002300008C0042AFAD203E011F8013B00F8013BA0
:10024000521EF9D27047D2B201E000F8012B491ECC
:10025000FBD270470022F6E710B513460A46044663
:100260001946FFF7F0FF204610BD2DE9FE4F81EA49
:10027000030404F0004421F0004100944FF0000B0F
:1002800023F0004350EA01045ED052EA03045BD03D
:10029000C3F30A54C1F30A552C44A4F2F334019475
:1002A000A0FB0254C1F3130141F48011C3F3130303
:1002B00043F4801301FB024400FB034E840A970AB7
:1002C00044EA815447EA8357A4FB076802958D0AE4
:1002D00005FB07854FEA932C04FB0C542705029D70
:1002E0004FEA065847EA1637B5EB08056EEB070CE0
:1002F000870E920E47EA811742EA8312A7FB02019A
:10030000B6EB0B0164EB00042B0D43EA0C335E18D3
:1003100044EB1C50DA465146E7FB0201C5F31304D7
:100320004FEA0B3343EA14534FEA0432019C43EA89
:100330000603A4F10C040294009CCDE900B400F083
:100340009DF803B0BDE8F08F00200146F9E70EB537
:1003500040F2334102910021CDE900110A460B46DB
:1003600000F08CF803B000BDC1F30A5210B5C1F320
:10037000130140F2FF3341F480119A4201DA002068
:1003800010BD40F233439A42A2F2334203DC5242A0
:1003900000F055F810BD904010BD00F0004230F064
:1003A00000400AD0C10D01F56071C0F3160042EAA9
:1003B0000151C208400711437047002001467047B1
:1003C00030B5041E71F1000404DB4FF000444042DC
:1003D00064EB0101141E73F1000405DB1C464FF0B1
:1003E0000043524263EB04038B4208BF824230BD9C
:1003F00030B5041E71F1000404DB4FF000444042AC
:1004000064EB0101141E73F1000405DB1C464FF080
:100410000043524263EB0403994208BF904230BD4F
:10042000202A04DB203A00FA02F1002070479140B4
:10043000C2F1200320FA03F3194390407047202AA9
:1004400004DB203A21FA02F00021704721FA02F37E
:10045000D040C2F12002914008431946704710B5C0
:10046000141E73F1000408DA401C41F100019218D7
:100470005B411A4301D120F0010010BD2DE9F04D80
:1004800092469B4611B1B1FA81F202E0B0FA80F2D5
:1004900020329046FFF7C4FF04460F4640EA0A00A8
:1004A00041EA0B0153465A46084313D0114653EA1A
:1004B000010019D0C8F140025046FFF7C0FF0546C1
:1004C0000E46504659464246FFF7AAFF084305D05C
:1004D000012004E020463946BDE8F08D00200543A8
:1004E00046EAE0762C4337430A986305E40AA0EB1A
:1004F00008000022FD0A44EA47540A3002D50020D1
:100500000146E9E7010510196941DDE908450019CF
:100510006941BDE8F04DA2E72DE9F04D00231A46F0
:100520001B1A8A4103DB00200146BDE8F08DC1F3B0
:100530000A52C1F3130141F480154FF0000BD107AB
:1005400002D100186D41521E0027044640F2FF11EF
:10055000384601EB620A3E468046024600204FF4D0
:100560008011FFF76CFFC2197141BB1846EB010007
:10057000B4EB030C75EB000C04D3E41A65EB000537
:1005800017460E46241908F101006D4180463428B3
:10059000E3DDF91946EB0600091BA84103D24FF031
:1005A000FF32134601E0002213461BEB070046EB27
:1005B0000A51BDE8F04DFFF752BF0000064C074D51
:1005C00006E0E06840F0010394E807009847103423
:1005D000AC42F6D3FFF7DCFDB0CE0108D0CE010867
:1005E00010B501F0FFF810BD2DE9F04107460C46AB
:1005F0000026002509E036023919491B491E88B238
:1006000000F008F80644681CC5B2A542F3DB30468A
:10061000BDE8F08170B50446002601F0A1F9254639
:10062000E11704EB11610912A02202EB4101C8B2EB
:1006300001F064F901F0CCF9E11704EB1161091242
:10064000A4EB0121C8B201F059F901F0C1F901F0A0
:1006500087F9A12001F052F901F0BAF9002001F068
:1006600021F9064601F098F9304670BD2DE9F041B8
:1006700005460E461746002409E0E20026FA02F27B
:10068000D1B22A1990B200F006F8601CC4B2BC4284
:10069000F3DBBDE8F08170B504460E4601F060F969
:1006A0002546E11704EB11610912A02202EB41017A
:1006B000C8B201F023F901F08BF9E11704EB1161E5
:1006C0000912A4EB0121C8B201F018F901F080F978
:1006D000304601F013F901F07BF901F05DF90A20D1
:1006E00003F08CFC70BD00BFFEE7704770B5044698
:1006F0001D460023B5F5804F13D154F822300C4825
:100700000340D1E9000640EA06108E6840EA062060
:100710008E8940EA06408E693043034344F8223014
:1007200003E06FF0704044F82200002070BD00002C
:100730000000F0CF10B503460022086853F82020CF
:1007400012480240D1E901042043CC6820430C69DF
:1007500020434C6920438C692043CC6920430C6AB8
:1007600020434C6A20438C6A2043CC6A2043CC6BE4
:1007700020430C6B204302438868082801D142F0D3
:100780004002086843F82020002010BD8000F0FFE0
:1007900030B503460024501C53F8204004F0404478
:1007A000D1E9000540EA05108D6840EA05208D89F1
:1007B00040EA0545088A401E45EA0055087D801E2E
:1007C00045EA00608D6928430443501C43F82040EB
:1007D000002030BD014691F83500022803D080206A
:1007E000486501207047052081F8350008680068D9
:1007F00020F001000A6810600020F3E7F8B5024617
:100800000B460025002400200021DCE0012606FA2A
:1008100001F51E6806EA0504AC4273D15E68012E3C
:1008200008D05E68022E05D05E68112E02D05E6888
:10083000122E13D190684F000326BE40B0434F00E4
:10084000DE68BE4030439060506801268E40B04361
:100850001E79C6F300168E4030435060D0684F00BA
:100860000326BE40B0434F009E68BE403043D06078
:100870005E68022E02D05E68122E13D1CF0802F1FC
:10088000200656F827004E07F70E0F26BE40B0434D
:100890004F07FF0E1E69BE403043CF0802F120060D
:1008A00046F8270010684F000326BE40B0431E796B
:1008B00006F003064F00BE40304310605E6806F04D
:1008C0008056B6F1805F7DD100BF00260096404E75
:1008D000366846F480463E4F3E603E46366806F433
:1008E0008046009600BF00BF3A4E8F0856F827009A
:1008F0008E07370F0F26BE40B043374EB24202D1AB
:10090000002624E05EE0354EB24201D101261EE011
:10091000334EB24201D1022619E0324EB24201D129
:10092000032614E0304EB24201D104260FE02F4ED0
:10093000B24201D105260AE02D4EB24201D106266F
:1009400005E02C4EB24201D1072600E008268F07B1
:100950003F0FBE4030431F4E8F0846F82700264EFB
:100960003068A0435E6806F48036B6F5803F00D15B
:100970002043214E3060361D3068A0435E6806F487
:100980000036B6F5003F00D120431B4E361D3060C7
:10099000361D3068A0435E6806F48016B6F5801FE9
:1009A00000D12043144E08363060361D3068A04315
:1009B0005E6806F40016B6F5001F00D120430E4E07
:1009C0000C363060491C1029FFF420AFF8BD000040
:1009D0004438024008380140000002400004024050
:1009E00000080240000C02400010024000140240C7
:1009F00000180240001C0240003C01400AB1816125
:100A000001E00B048361704701480068000C7047E7
:100A1000002004E001480068704700000400002046
:100A20000348006803490978084401490860704791
:100A3000040000200C00002010B50A48006840F4B3
:100A40000070084908600846006840F4806008604B
:100A5000032000F07FF80F2000F006F800F02AF8DD
:100A6000002010BD003C024070B504460E480078DE
:100A70004FF47A71B1FBF0F00C490968B1FBF0F565
:100A8000284600F0C1FC08B1012070BD102C07D22F
:100A900000222146501E00F01EF80548046001E0C7
:100AA0000120F2E70020F0E70C0000200000002009
:100AB00008000020704701460846002809DB00F0C6
:100AC0001F0301229A4043099B0003F1E023C3F86E
:100AD000002100BF70472DE9F05F80460D461646A5
:100AE000002703F01DF8074639462A46334601F031
:100AF0000700C0F1070ABAF1040F02D94FF0040A47
:100B000001E0C0F1070AD14600F1040ABAF1070F6B
:100B100002D24FF0000A01E0A0F1030AD4464FF0E0
:100B2000010A0AFA09FAAAF1010A0AEA020A0AFA09
:100B30000CFA4FF0010B0BFA0CFBABF1010B0BEABB
:100B4000030B4AEA0B042146404602F0F1FFBDE8E0
:100B5000F09F000000BF00F00702064B19684FF637
:100B6000FF031940044B0B4343EA0221014B196078
:100B700000BF70470CED00E00000FA0570B50446B8
:100B80000D460CB9012070BD5848006800F00F00F8
:100B9000A84209D255490D700846006800F00F00C0
:100BA000A84201D00120EEE7207800F002000228E0
:100BB0001DD1207800F00400042805D14C480068BD
:100BC00040F4E0504A490860207800F00800082806
:100BD00005D14748006840F46040454908604448F2
:100BE000006820F0F000A1680843414908602078BF
:100BF00000F00100A8B36068012807D13C4808381C
:100C00000068C0F34040B8B90120BCE76068022822
:100C100002D06068032807D1354808380068C0F35F
:100C2000406048B90120AEE7314808380068C0F399
:100C3000400008B90120A6E72D48006820F0030015
:100C4000616808432A490860FFF7E4FE064609E0A8
:100C5000FFF7E0FE801B41F28831884202D9032071
:100C600091E707E02248006800F00C006168B0EBF3
:100C7000810FEDD11D48006800F00F00A84209D98E
:100C80001A490D700846006800F00F00A84201D014
:100C9000012078E7207800F00400042807D11448E8
:100CA000006820F4E050E1680843114908602078AA
:100CB00000F00800082808D10D48006820F46040C2
:100CC000216940EAC1000A49086000F03FF808497C
:100CD0000968C1F30311074A515CC840064908601E
:100CE00006480068FFF7C0FE00204CE7003C0240C9
:100CF00008380240FF84010800000020080000209E
:100D000001480068704700000000002000B5FFF7B0
:100D1000F7FF04490968C1F38221034A515CC840C6
:100D200000BD0000083802400F85010800B5FFF73C
:100D3000E7FF04490968C1F34231034A515CC840E6
:100D400000BD0000083802400F8501082DE9F0477A
:100D5000002400250026A1462548006800F00C006C
:100D600020B1042805D008283AD105E0DFF88490A6
:100D700039E0DFF8849036E01D48001F006800F07D
:100D80003F041B48001F006800F4800078B11A4837
:100D90001749091F0968C1F38811A0FB01700146BA
:100DA000224600233846FFF70BFA05460EE01148AD
:100DB0000F49091F0968C1F38811A0FB01700146A2
:100DC000224600233846FFF7FBF905460848001F76
:100DD0000068C0F30140401C4600B5FBF6F902E094
:100DE000DFF8109000BF00BF4846BDE8F087000064
:100DF000083802400024F40000127A00F8B50446D6
:100E00000CB90120F8BD207800F00100002874D052
:100E1000F948006800F00C0004280DD0F64800687E
:100E200000F00C00082813D1F348001F006800F4FC
:100E30008000B0F5800F0BD1EF4808380068C0F390
:100E40004040002859D06068002856D10120D9E7D9
:100E500000BF6068B0F5803F08D1E74808380068F7
:100E600040F48030E449083908601EE06068B0F55D
:100E7000A02F0DD1E0480838006840F48020DE49FA
:100E8000083908600846006840F4803008600CE0CB
:100E9000D9480838006820F48030D74908390860FC
:100EA0000846006820F48020086000BF606890B1A8
:100EB000FFF7B0FD054606E0FFF7ACFD401B6428D8
:100EC00001D903209EE7CC4808380068C0F34040B1
:100ED0000028F1D011E0FFF79DFD054606E0FFF781
:100EE00099FD401B642801D903208BE7C2480838CC
:100EF0000068C0F340400028F1D1207800F00200E3
:100F000002285FD1BC48006800F00C0058B1BA4814
:100F1000006800F00C0008281CD1B748001F0068CA
:100F200000F48000B0B9B44808380068C0F340004D
:100F300020B1E068012801D0012063E7AE480838FD
:100F4000006820F0F800216940EAC100AA49083988
:100F5000086037E0E06800B30120A8490860FFF7A7
:100F600059FD054606E0FFF755FD401B022801D953
:100F7000032047E7A04808380068C0F34000002875
:100F8000F1D09D480838006820F0F800216940EA57
:100F9000C10099490839086014E0002097490860A9
:100FA000FFF738FD054606E0FFF734FD401B022839
:100FB00001D9032026E7904808380068C0F34000B4
:100FC0000028F1D1207800F0080008282CD16069B1
:100FD000A8B101208A490860FFF71CFD054606E01C
:100FE000FFF718FD401B022801D903200AE78248B9
:100FF0006C300068C0F340000028F1D014E00020FD
:101000007F490860FFF706FD054606E0FFF702FD91
:10101000401B022801D90320F4E677486C300068B1
:10102000C0F340000028F1D1207800F0040004282B
:1010300070D1002770483830006800F0805090B9B7
:1010400000BF002000906C483830006840F08050AD
:101050006949383108600846006800F08050009007
:1010600000BF00BF01276748006800F48070B0B976
:101070006448006840F4807062490860FFF7CAFC69
:10108000054606E0FFF7C6FC401B022801D90320F5
:10109000B8E65C48006800F480700028F2D000BF19
:1010A000A068012808D154486830006840F0010069
:1010B0005149683108601DE0A06805280DD14E48EF
:1010C0006830006840F004004B4968310860084609
:1010D000006840F0010008600CE047486830006894
:1010E00020F001004449683108600846006820F09B
:1010F0000400086000BFA068A8B1FFF78BFC05469C
:1011000009E0FFF787FC401B41F28831884202D991
:10111000032077E626E0384868300068C0F34000D6
:101120000028EED013E0FFF775FC054608E0FFF756
:1011300071FC401B41F28831884201D9032061E6ED
:101140002D4868300068C0F340000028EFD1012F1F
:1011500007D129483830006820F0805026493831BE
:10116000086000BFA069002845D02348006800F04F
:101170000C0008285DD0A069022845D100201F4935
:101180000866FFF747FC054606E0FFF743FC401BF7
:10119000022801D9032035E6174808380068C0F353
:1011A00040600028F1D1D4E907010843616A40EAB0
:1011B00081110122A06AC2EB500041EA00412C20BB
:1011C000005D41EA00600C49091F086001200B49DD
:1011D0000866FFF71FFC054606E0FFF71BFC401BF7
:1011E000022801D903200DE6034808380068C0F33F
:1011F00040600028F1D03FE008380240000047423C
:10120000800E47420070004000201C490866FFF72E
:1012100001FC054606E0FFF7FDFB401B022801D953
:101220000320EFE516480068C0F340600028F2D1C3
:1012300022E0A069012800D1E4E51148001D0668FC
:1012400006F48001E069814214D106F03F01206A72
:1012500081420FD147F6C0703040616A884209D19F
:1012600006F44031A06A814204D106F07061E06A60
:10127000814201D00120C5E50020C3E500004742BE
:101280000038024070B504460E4615460CB90120E0
:1012900070BD94F8490028B9002084F84800204621
:1012A00000F01CF804F108012068FFF743FA31460A
:1012B000A2682068FFF76CFA2946236BD4E9010283
:1012C000FFF714FAA168206850F8210040F00100EF
:1012D000A268216841F822000020D9E710B586B045
:1012E000044600BF002000903848006840F001002C
:1012F000364908600846006800F00100009000BF11
:1013000000BF00BF0020009030480838006840F05F
:1013100008002E49083908600846006800F00800F7
:10132000009000BF00BF00BF00200090084600688A
:1013300040F0100008600846006800F010000090BF
:1013400000BF00BF00BF002000900846006840F0CA
:10135000200008600846006800F02000009000BFF0
:1013600000BF00BF002000900846006840F0400029
:1013700008600846006800F04000009000BF00BF11
:101380004CF2337001900220029001200390032060
:1013900004900C20059001A90D48FFF72FFA4FF695
:1013A0008070019001A90B48FFF728FA4FF4805094
:1013B000019001A90848FFF721FA4FF480500190ED
:1013C00001A90648FFF71AFA06B010BD38380240E6
:1013D000000C0240001002400014024000180240BD
:1013E000042808D14FF0E021096941F004014FF0D1
:1013F000E022116107E04FF0E021096921F00401CA
:101400004FF0E0221161704770B504462546681E12
:10141000B0F1807F01D301200FE0681E4FF0E02182
:1014200048610F214FF0FF3002F082FB00204FF0A7
:10143000E021886107200861002070BD70470146E7
:101440000022002391F8392091F83A3042EA030053
:10145000704700002DE9F0470446206805682068C1
:10146000C668206847694FF00008C14605F00F08BC
:10147000B8F1000F0AD105F0200038B106F02000C5
:1014800020B1204602F082F8BDE8F087B8F1000FE5
:1014900072D007F0010018B906F4907000286BD0E4
:1014A00005F0010030B106F4807018B1E06B40F037
:1014B0000100E06305F0040030B107F0010018B14D
:1014C000E06B40F00200E06305F0020030B107F08D
:1014D000010018B1E06B40F00400E06305F0080083
:1014E00048B106F0200010B907F0010018B1E06B18
:1014F00040F00800E063E06B70B305F0200028B115
:1015000006F0200010B1204602F040F82068406943
:10151000C0F38019E06B00F0080010B9B9F1000FBA
:1015200023D0204602F012F82068406900F0400005
:10153000402816D12068406920F0400021684861A9
:10154000606B50B11748616B0865606BFFF742F93B
:1015500010B1606B016D88470CE02046FFF76EFF0D
:1015600008E02046FFF76AFF04E02046FFF766FF29
:101570000020E06388E7FFE705F0800030B106F067
:10158000800018B1204602F049FA7DE705F04000DE
:1015900030B106F0400018B1204601F0E7FF73E7D4
:1015A00000BF71E73935000810B504460CB90120B9
:1015B00010BDA06900B100E000BF94F8390028B95F
:1015C000002084F83800204600F028F8242084F811
:1015D00039002068C06820F400502168C8602046A7
:1015E00002F028F82068006920F490402168086122
:1015F0002068406920F02A00216848612068C0689E
:1016000040F400502168C8600020E063202084F886
:10161000390084F83A000020CAE7000010B586B00F
:1016200004461F492068884238D100BF002000903E
:101630001C48006840F001001A490860084600682C
:1016400000F00100009000BF00BF00BF002000902C
:1016500014481430006840F010001249143108603A
:101660000846006800F01000009000BF00BF4FF473
:10167000C06001900220029001200390022004909B
:101680000720059001A90848FFF7B8F82520FFF7C3
:1016900012FA032211462520FFF71DFA06B010BDED
:1016A00000100140303802400000024010B50346EF
:1016B00093F83A0020282FD101B10AB9012010BDBA
:1016C00000BF93F83800012801D10220F7E701207C
:1016D00083F8380000BF99629A85DA850020D863C4
:1016E000222083F83A0000BF002083F8380000BFB2
:1016F0001868C06840F480701C68E0601868406931
:1017000040F001001C6860611868C06840F020006B
:101710001C68E0600020D2E70220D0E71D4A016883
:10172000914236D11C49098801F4004189BB1A490C
:10173000098801F4804171B1184909780A2903D058
:101740000021154A118024E01349098841F4004121
:10175000114A11801DE0114909780D2906D10E4961
:10176000098841F480410C4A118012E00B49097844
:10177000094A1288C2F30D02094B99540649098897
:10178000491C054A118011460988C72901DD00213D
:1017900011807047001001406C0000206E00002096
:1017A00098CC0020704700BFFEE7000010B5002075
:1017B0000A49086000F0B4FC00200949C1F8A402FD
:1017C000022002F027FC012004490860052002F0F5
:1017D00021FC00200249C1F8A00210BDA0824042B5
:1017E0000080404200B587B000BF002001901B4838
:1017F000006840F00200194908600846006800F0DF
:101800000200019000BF00BF00BF00200190084609
:10181000006840F0020008600846006800F002001E
:10182000019000BF00BF8815029001200390049032
:101830000220059002A90A48FEF7E0FF4FF400706D
:10184000029002A90648FEF7D9FF01200549086069
:101850000549C1F8A00207B000BD000030380240C1
:1018600000040240A48240420080404210B50020A3
:101870000A49086000F054FC01200949C1F8A4029B
:10188000022002F0C7FB012004490860052002F095
:10189000C1FB00200249C1F8A00210BDA082404255
:1018A0000080404270B50546002400F025FC00266B
:1018B00016E000200F490860022002F0ABFB012077
:1018C0000D49C1F8A0026006040E0A487C38006881
:1018D00008B1601CC4B2012002F09CFB701CC6B2AF
:1018E000082EE6DB15B9FFF7C1FF01E0FFF75EFF49
:1018F000204670BDA08240420080404270B5044640
:1019000000F00EFC002014490860002520E004F0DF
:101910008000002804DD01200F49091D086003E054
:1019200000200D49091D08606006040E022002F027
:1019300071FB012008490860022002F06BFB0020C7
:101940000649C1F8A002022002F064FB681CC5B27F
:10195000082DDCDB70BD0000A082404200804042C8
:1019600010B500F0DDFB0120094908600949C1F804
:10197000A002052002F04EFB002005490860062069
:1019800002F048FB00200349C1F8A00210BD00008E
:10199000A48240420080404210B500F0C1FB00200C
:1019A000094908600949C1F8A402012006490860F4
:1019B000062002F02FFB01200449C1F8A4020620F2
:1019C00002F028FB10BD0000A0824042008040428F
:1019D00010B5002400F090FB01200E49086002F0D1
:1019E00019FB01200C49C1F8A00202F013FB07E02B
:1019F000601CC4B2FA2C03DDFFF7CEFF012010BD3E
:101A00000448803800680028F2D10249091F0860A4
:101A100000BFF4E7A48240420080404200B587B096
:101A200000BF002001901848006840F001001649EE
:101A300008600846006800F00100019000BF00BF88
:101A400000BF002001900846006840F010000860C8
:101A50000846006800F01000019000BF00BF1C2085
:101A60000290002003900120049002A90748FEF78D
:101A7000C5FE012002900220049002A90448FEF74E
:101A8000BDFE07B000BD000030380240001002402B
:101A90000000024010B50446012C01D12249087013
:101AA0002148007801282AD12048006801280AD05E
:101AB0001F48006838B11E48001F006818B11C4854
:101AC00008380068D8B90A2002F098FA00201649B0
:101AD000087016480068012800D110BD144800683D
:101AE00008B90220F9E71248001F006808B903206E
:101AF000F3E70F4808380068A0B90420EDE70B4869
:101B0000006878B90A48006801280BD10848001F0E
:101B10000068012806D1064808380068012801D16C
:101B2000014908700020D8E71A0000200002404256
:101B30001002424270B506460F484088401E83B2EC
:101B40000D480088401E82B20021084600F03CF992
:101B500000240CE0002504E0304600F079FA681C0F
:101B600085B205484088A842F6DC601C84B2024871
:101B70000088A042EEDC70BD1200002000B50246D5
:101B80000F4882716AB9362000F056FA4C2000F0F6
:101B900059FA4FF4F0700A4948804FF4A070088059
:101BA0000CE0362000F048FA2C2000F04BFA4FF4FD
:101BB000A070034948804FF4F070088000BD000019
:101BC0001200002070B504460D4616462B462246EC
:101BD0002946204600F0F8F8304600F039FA70BD8A
:101BE0002DE9FF4F84B081468A4600200390029081
:101BF0000698A0EB09050798A0EB0A06CDF804901B
:101C0000CDF800A0002D01DD012705E00DB900276A
:101C100002E04FF0FF376D42002E02DD4FF0010869
:101C200006E016B94FF0000802E04FF0FF387642A8
:101C3000B54201DD2C4600E034464FF0000B21E0B8
:101C4000009A91B2019A90B200F022F803982844C9
:101C500003900298304402900398A04205DD039857
:101C6000001B03900198384401900298A04205DDC2
:101C70000298001B02900098404400900BF1010074
:101C80001FFA80FB601C8345DADD08B0BDE8F08FE9
:101C900030B504460D462B4622462946204600F024
:101CA00093F80248008800F0D3F930BD0E00002000
:101CB0002DE9F04306460F46904600244546032092
:101CC000A0EB48093CE07A1B91B2321990B2FFF7C1
:101CD000DFFF3A1B91B2721990B2FFF7D9FF3A19A0
:101CE00091B2721990B2FFF7D3FF7A1991B23219FB
:101CF00090B2FFF7CDFF7A1991B2321B90B2FFF785
:101D0000C7FF3A1991B2721B90B2FFF7C1FF7A1B5D
:101D100091B2321B90B2FFF7BBFF3A1B91B2721B1C
:101D200090B2FFF7B5FF641CB9F1000F03DAA00011
:101D3000801D814404E0601B80000A3081446D1ED8
:101D4000AC42C0DDBDE8F0832DE9F04304460D460A
:101D500016461F46DDF81C80B44201DCBD4201DDA1
:101D6000BDE8F0833B4632462946204600F02CF879
:101D7000301B401C84B2781B401C85B20BE0A94686
:101D800002E0404600F064F9B9F10000A9F1010158
:101D90001FFA81F9F5D1201EA4F101018CB2EED118
:101DA00000BFDDE710B50246012000E050430B1EE6
:101DB000A1F10104E1B2F9D110BD00000148008891
:101DC000704700008000006C30B504460D462A20A4
:101DD00000F032F9201200F035F9E0B200F032F9EB
:101DE000101200F02FF9D0B200F02CF92B2000F0E7
:101DF00023F9281200F026F9E8B200F023F91812AE
:101E000000F020F9D8B200F01DF92C2000F014F9F0
:101E100030BD00002DE9F84F80460E4617461C469F
:101E2000B3462046E31704EB5373DB1021464FEA19
:101E3000E47C04EB5C7C4FEAEC0CA4EBCC0CBCF136
:101E4000000F02D04FF0010C01E04FF0000C634492
:101E5000224604EBD27C4FEA6C0C03FB0CF3DBB2A2
:101E60000093A7F12000C7B2002556E00C2C07D143
:101E700007EB47002B4901EB800010F8059013E0B9
:101E8000102C05D1284800EB071010F805900BE046
:101E9000182C07D107EBC700244901EB800010F88C
:101EA000059001E0BDE8F88F4FF0000A2FE009F03F
:101EB000800030B11E48028831464046FFF782FE5E
:101EC00007E00A9828B91B48028831464046FFF7C8
:101ED00079FE4FEA49604FEA1069701C86B21648D5
:101EE0004088B04200DCDDE7A6EB0B00A0420AD13F
:101EF0005E4608F101001FFA80F80F48008840454F
:101F000000DCCFE706E00AF1010000F0FF0ABAF1B9
:101F1000080FCCDB00BF681CC5B200988542A5DB6A
:101F200000BFBFE7178501088B8901087B8F010877
:101F30000E00002010000020120000202DE9FF4FAD
:101F400081B0074691461E460E9D4FF0000A0024C0
:101F500039E0301B401EC1B20A20FFF723FFB9FB56
:101F6000F0F00A21B0FBF1F201FB1208BAF1000F08
:101F700016D1701EA04213DDB8F1000F0ED1002063
:101F8000AB4605EBDB71491001FB0471009088B290
:101F90002B4620220299FFF73DFF12E04FF0010A85
:101FA0000020AB4605EBDB71491001FB047100908A
:101FB00088B208F13001CAB22B460299FFF72AFF16
:101FC00000BF601CC4B2B442C3DB05B0BDE8F08FF3
:101FD0002DE9F84704460D4690469946DDE9096724
:101FE00004F0FF0A08EB04001FFA80F809EB050073
:101FF0001FFA80F916E0444502DB5446A81985B261
:102000004D4500DB14E0002000903A783346294625
:102010002046FFF7FFFE304606EBD07104EB61016E
:102020008CB27F1C38787E2802DC38782028E2DAEF
:1020300000BFBDE8F8870000014908807047000034
:102040007E00006C01490880704700008000006C31
:102050000112044A1180C1B24FF0D842A2F8801098
:10206000704700008000006C00B587B000BF002002
:1020700001901D48006840F020001B490860084698
:10208000006800F02000019000BF00BF00BF0020EA
:1020900001900846006840F020000860084600688B
:1020A00000F02000019000BF00BF48150290012001
:1020B000039004900320059002A90C48FEF79EFBB4
:1020C0004FF48060029002A90848FEF797FB0122B6
:1020D00051020648FEF792FC012291020348FEF7E6
:1020E0008DFC07B000BD00003038024000140240F3
:1020F00000BFFEE77047704700B585B04FF4007031
:102100000090002001900120029002200390694677
:102110000248FEF773FB05B000BD0000000402405A
:1021200000B585B04FF4007000900120019002903E
:102130000220039069460248FEF760FB05B000BD2F
:1021400000040240704710B5FEF76AFC10BD0000A5
:1021500010B504460420FFF743F90148046010BDA0
:10216000680000202DE9F04192B080460C461546EB
:102170001E46002700BF002000902A48006840F05B
:102180008050284908600846006800F080500090A0
:1021900000BF00BF00BF002000902348006840F44B
:1021A0008040214908600846006800F480400090A3
:1021B00000BF00BF012006900004079002200C9091
:1021C00041050D91CDF838800F941095119606A811
:1021D000FEF714FE07460FB100BFFEE70F20019087
:1021E00002200290002003904FF4A05004904FF47E
:1021F00080500590052101A8FEF7C0FC07460FB1ED
:1022000000BFFEE7FEF700FC41F20101884205D164
:102210000648006840F480700449086012B0BDE8C8
:10222000F08100004038024000700040003C024055
:102230000548006840F47000034908604FF00060F2
:10224000014980390860704788ED00E000B595B01D
:1022500000BF002001902848006840F00200264995
:1022600008600846006800F00200019000BF00BF4F
:102270004FF4004010900120119012900320139011
:1022800010A91E48FEF7BAFA4FF020401C4908601A
:102290001C4848600620886000211948C16001611F
:1022A0001021416100218161C16141624FF480517F
:1022B00081620021C1624FF48041016300214163CA
:1022C00081634FF48011C1630F20099000200A90B0
:1022D0003C200B9000200F900590092002900020D8
:1022E0000390082004900020089002AA09A904483D
:1022F000FEF7C8FF15B000BD3038024000040240B0
:1023000008CC0020040100A010B5FFF79FFF322089
:1023100001F074FED020FFF78FFEFFF74FFD6449F8
:102320008880FFF74BFD624988800846818861A05C
:1023300001F0E6FBE920FFF77FFE2020FFF782FE99
:102340001120FFF779FE4FF4FA7401E0601E84B2A9
:10235000002CFBDC3A20FFF76FFE5520FFF772FEE2
:10236000D120FFF769FE0020FFF76CFE6520FFF724
:1023700069FE1F20FFF766FED020FFF75DFE0720F5
:10238000FFF760FE0720FFF75DFE8020FFF75AFE93
:102390003620FFF751FE4C20FFF754FEC120FFF717
:1023A0004BFE1020FFF74EFE1020FFF74BFE0220E1
:1023B000FFF748FE0220FFF745FEC020FFF73CFE76
:1023C0000020FFF73FFE3520FFF73CFE0020FFF71F
:1023D00039FE0020FFF736FE0120FFF733FE022012
:1023E000FFF730FEC420FFF727FE0320FFF72AFE89
:1023F000C520FFF721FE0120FFF724FED220FFF7C2
:102400001BFE0120FFF71EFE2220FFF71BFEE72028
:10241000FFF712FE3820FFF715FEF320FFF70CFE42
:102420000820FFF70FFE1220FFF70CFE1220FFF727
:1024300009FE0820FFF706FEC820FFF7FDFD01207A
:10244000FFF700FE5220FFF7FDFD3720FFF7FAFDF2
:102450001020FFF7F7FD0D20FFF7F4FD0120FFF737
:10246000F1FD0420FFF7EEFD5120FFF7EBFD772093
:10247000FFF7E8FD0120FFF7E5FD0120FFF7E2FD92
:102480000D20FFF7DFFD0820FFF7DCFD8020FFF7C0
:10249000D9FD0020FFF7D6FD2920FFF7CDFD002054
:1024A000FFF76CFB4FF6FF70FFF744FB10BD000019
:1024B00012000020204C43442049443A25780D0A5C
:1024C000000000002DE9FC5F04460D4617461E463D
:1024D000DDE90EABDDE90C894FF4784057490880FF
:1024E00057A01021CDE90010564843880288A0214A
:1024F0002820FFF76DFD54A01021CDE900105148B0
:1025000043880288A0217820FFF762FD4FA01021A8
:10251000CDE900104B4843880288B4212820FFF7FA
:1025200057FD4BA01021CDE9001046484388028892
:10253000B4217820FFF74CFD46A01021CDE9001012
:10254000404843880288C8212820FFF741FD42A067
:102550001021CDE900103B4843880288C82178202B
:10256000FFF736FD3DA01021CDE900103548438826
:102570000288DC212820FFF72BFD39A01021CDE9AE
:102580000010304843880288DC217820FFF720FDC6
:1025900034A01021CDE900102A4843880288F02198
:1025A0002820FFF715FD102004232246A0210090CB
:1025B0004020FFF7C3FC102004232A46A0210090EE
:1025C0009020FFF7BBFC102004233A46B421009072
:1025D0004020FFF7B3FC102004233246B4210090C2
:1025E0009020FFF7ABFC102004234246C821009046
:1025F0004020FFF7A3FC102004234A46C821009086
:102600009020FFF79BFC102004235246DC21009011
:102610004020FFF793FC102004235A46DC21009051
:102620009020FFF78BFC102003230090F021602006
:10263000109AFFF783FCBDE8FC9F00000E0000200D
:1026400078313A001200002079313A0078323A00AD
:1026500079323A0078333A0079333A0078343A00E4
:1026600079343A006661632069733A0000B597B027
:10267000002012900B9012901F21FE4801804FF60F
:10268000FF71FD4801800846FFF754FA4FF4784186
:10269000F84801804FF6FF70FFF74CFA0020F5492B
:1026A0000880F648006810216423A022CDE90010BC
:1026B00028210846FFF78CFC4FF478421421084685
:1026C00000F054FC0020EE4988869FEDEE0A084693
:1026D00080ED0E0A46E2EA4840680A9001200A9915
:1026E0008847E74890F8340000F0C00040287AD1CD
:1026F00000200B90E248808E20F04000E049888660
:102700000846818913AA129822F82010DC48018C0F
:10271000129802EB800041801298401CC0B21290C7
:102720001298012806D0022815D0032829D00428A1
:1027300010D141E04FF6FF721421084600F016FC5C
:10274000D1480088143880B24FF4784214210A909E
:1027500000F00CFCE5E3CC480088143880B24FF65A
:10276000FF7214210A9000F001FCC7484088143819
:1027700080B24FF4784201460A90142000F0F6FB34
:10278000CFE3C1484088143880B24FF6FF7201464B
:102790000A90142000F0EAFBBB484088143880B24D
:1027A0000A90B9480088143880B24FF478420990F2
:1027B0000A9900F0DBFBB4E3BDF84C10BDF8500003
:1027C000081A0A90002801DB0A9801E00A984042A2
:1027D0000F90BDF84E1013A8C088081A0A90002860
:1027E00002DB0A9802E09DE30A9840420E900F989F
:1027F00040430F900E9840430E90DDE90E100844C0
:102800000590FDF7A4FDCDE906019DED060B01F055
:10281000A3F98DED080B9DED080B51EC100BFDF7A6
:10282000A3FD80B21190BDF85400BDF85810401AB5
:102830000A90002801DB0A9801E00A9840420F90B4
:1028400013A84189C089081A0A90002801DB0A9858
:1028500001E00A9840420E900F9840430F900E9866
:1028600040430E90DDE90E1008440590FDF76FFD22
:10287000CDE906019DED060B01F06EF98DED080B1B
:102880009DED080B51EC100BFDF76EFD80B2109022
:102890009DED110AF8EE400A9DED100AB8EE401ABF
:1028A00080EE810A8DED0A0A0A98FDF776FDCDE9E2
:1028B0000C019FED760B53EC102B9DED0C0B51ECA6
:1028C000100BFDF77DFD0ED39FED720B53EC102B1B
:1028D0009DED0C0B51EC100BFDF78AFD03D3119805
:1028E00008B11098F0BB0020129067484088143857
:1028F00080B20A9064480088143880B24FF6FF72A4
:1029000009900A9900F032FB4FF4784214210846EE
:1029100000F02CFB9FED610B53EC102B9DED0C0B8D
:1029200051EC100BFDF7A1FCCDE908019DED080B62
:1029300051EC100BFDF718FD80B213A90A90C9895C
:10294000BDF8582013AB5B89CDE90132CDE9031006
:10295000BDF85400009013A8C0880990BDF850003D
:10296000089000E00AE0BDF84E000790BDF84C006A
:10297000069007A90EC9FFF7A5FDE2E2BDF84C10CD
:10298000BDF85400081A0A90002801DB0A9801E0FB
:102990000A9840420F90BDF84E1013A84089081ABB
:1029A0000A90002801DB0A9801E00A9840420E9044
:1029B0000F9840430F900E9840430E90DDE90E10A3
:1029C00008440590FDF7C3FCCDE906019DED060B1B
:1029D00001F0C2F88DED080B9DED080B51EC100BCA
:1029E000FDF7C2FC80B21190BDF85010BDF8580040
:1029F000081A0A90002801DB0A9801E00A98404270
:102A00000F9013A8C188C089081A0A90002801DB1A
:102A10000A9801E00A9840420E900F9840430F90A8
:102A20000E9840430E90DDE90E1008440590FDF726
:102A30008EFCCDE906019DED060B01F08DF88DEDC4
:102A4000080B9DED080B51EC100BFDF78DFC80B2CF
:102A500010909DED110AF8EE400A9DED100AB8EEB7
:102A6000401A80EE810A8DED0A0A0A98FDF795FC5E
:102A700018E000000E0000201000002030CE0108F9
:102A80001C00002000000000120000206666666640
:102A90006666EE3FCDCCCCCCCCCCF03F0000000045
:102AA00000005940CDE90C011FED080B53EC102B31
:102AB0009DED0C0B51EC100BFDF782FC0AD31FEDC2
:102AC0000B0B53EC102B9DED0C0B51EC100BFDF789
:102AD0008FFC48D200201290F7484088143880B20A
:102AE0000A90F5480088143880B24FF6FF720990BA
:102AF0000A9900F03BFA4FF478421421084600F09E
:102B000035FA1FED1A0B53EC102B9DED0C0B51EC0D
:102B1000100BFDF7AAFBCDE908019DED080B51EC68
:102B2000100BFDF721FC80B213A90A90C989BDF8EA
:102B3000582013AB5B89CDE90132CDE90310BDF814
:102B40005400009013A8C0880990BDF85000089068
:102B5000BDF84E000790BDF84C00069007A90EC9BD
:102B6000FFF7B0FCEDE1BDF85000BDF85410401A7D
:102B70000A90002801DB0A9801E00A9840420F9071
:102B800013A8C1884089081A0A90002801DB0A9816
:102B900001E00A9840420E900F9840430F900E9823
:102BA00040430E90DDE90E1008440590FDF7CFFB81
:102BB000CDE906019DED060B00F0CEFF8DED080B73
:102BC0009DED080B51EC100BFDF7CEFB80B2119080
:102BD000BDF84C00BDF85810401A0A90002801DBDF
:102BE0000A9801E00A9840420F90BDF84E1013A8D1
:102BF000C089081A0A90002801DB0A9801E00A98A7
:102C000040420E900F9840430F900E9840430E9014
:102C1000DDE90E1008440590FDF799FBCDE90601AA
:102C20009DED060B00F098FF8DED080B9DED080B58
:102C300051EC100BFDF798FB80B210909DED110A3E
:102C4000F8EE400A9DED100AB8EE401A80EE810AB7
:102C50008DED0A0A0A98FDF7A0FBCDE90C011FEDE6
:102C6000750B53EC102B9DED0C0B51EC100BFDF77D
:102C7000A7FB0AD31FED790B53EC102B9DED0C0B2A
:102C800051EC100BFDF7B4FB49D2002012908A489A
:102C90004088143880B20A9087480088143880B27F
:102CA0004FF6FF7209900A9900F060F94FF47842EC
:102CB0001421084600F05AF91FED880B53EC102B35
:102CC0009DED0C0B51EC100BFDF7CFFACDE908018F
:102CD0009DED080B51EC100BFDF746FB80B2014651
:102CE0000A9013A8C289BDF8580013AB5B89CDE9DF
:102CF0000130CDE90321BDF85400009013A8C0882D
:102D00000990BDF850000890BDF84E000790BDF83E
:102D10004C00069007A90EC9FFF7D4FB11E1BDF8DE
:102D20005000BDF84C10401A00EE100AF8EEC00A30
:102D300061480088283800EE100AB8EEC00A80EE1C
:102D4000201A5E4880ED0E1ABDF85000BDF84C10F8
:102D5000084400EE100AF8EEC00A5748008800EE5A
:102D6000100AB8EE400A554890ED0E1A01EE600ABE
:102D7000F0EE000A80EE201ABDEEC10A10EE100A35
:102D800001B24E48A0F8401013A84089BDF84E107B
:102D9000401A00EE100AF8EEC00A4748408828386A
:102DA00000EE100AB8EEC00A80EE201A434880ED0B
:102DB0000F1A13A84089BDF84E10084400EE100AFF
:102DC000F8EEC00A3C48408800EE100AB8EE400A0F
:102DD0003A4890ED0F1A01EE600AF0EE000A80EE1C
:102DE000201ABDEEC10A10EE100A00B23349A1F854
:102DF0004200084690ED0E0ABDEEC00A8DED090AAC
:102E00000998002801DB099801E00998404202284E
:102E10000FDC2A4890ED0F0ABDEEC00A8DED0A0ABC
:102E20000A98002801DB0A9801E00A98404202282B
:102E300054DD0020129020484088143880B20A9057
:102E40001D480088143880B24FF6FF7209900A9925
:102E500000F08CF84FF478421421084600F086F810
:102E600017A01021CDE90010134840880A9012489D
:102E70000088099002461A2128200A9BFFF7A8F82B
:102E80000E4890F8440008B9012000E000200B49EA
:102E900081F84400084690F8440030B190200D4974
:102EA0000870D0210C48017005E0D021094801705C
:102EB00090200949087044E0120000201C00002006
:102EC0005450204E65656420726561646A75737440
:102ED0002100000064000020650000201F211B4825
:102EE00001804FF6FF70FEF725FE19A01021CDE9F5
:102EF00000101D4840880A901B480088099002462F
:102F00006E2123200A9BFFF763F84FF47A7001F0DB
:102F100075F800F031FA4FF6FF70FEF70BFE17B0B0
:102F200000BD00BF0A2001F069F80B98401C80B278
:102F30000B900B98B0F57A7F02DD00F04FF802E0BD
:102F400000BFFFF7C8BB00BF00BFE8E70E000020CE
:102F5000546F7563682053637265656E2041646ABF
:102F6000757374204F4B21001200002070B5044689
:102F70000D4616461848068004F10D018AB219392B
:102F800088B22B462946FEF72BFE05F10D0083B2D1
:102F9000193881B222462046FEF722FE6A1C91B201
:102FA000621C90B2FEF774FE6A1C91B2621E90B26F
:102FB000FEF76EFE6A1E91B2621C90B2FEF768FECA
:102FC0006A1E91B2621E90B2FEF762FE0622294688
:102FD0002046FEF76DFE70BD0E00002010B5D52016
:102FE000FDF718FB04460A2C48D10421C820FDF740
:102FF000FBFA044600EE104AB8EEC00ADFED200AE4
:1030000080EE201A1F4880ED0E1A0421CC20FDF717
:10301000EBFA044600EE104AB8EEC00ADFED180ADB
:1030200080EE201A174880ED0F1A0221D020FDF7FC
:10303000DBFA00B21349A1F840000221D220FDF7CB
:10304000D3FA00B20F49A1F84200D420FDF7E2FA0A
:103050000C4981F84400084690F8440030B19020B3
:1030600009490870D0200949087005E0D0200649B8
:103070000870902005490870012010BD0020FCE771
:1030800020BCBE4C1C000020640000206500002015
:1030900000B587B000BF002001903248006840F0C2
:1030A0000200304908600846006800F00200019004
:1030B00000BF00BF00BF002001900846006840F03C
:1030C000040008600846006800F00400019000BF9A
:1030D00000BF00BF002001900846006840F02000BB
:1030E00008600846006800F02000019000BF00BFA3
:1030F00006200290002003900120049003200590F8
:1031000002A91948FDF77AFB01200290039002A959
:103110001548FDF773FB4FF40050029002A91348C5
:10312000FDF76CFB4FF40060029002A91048FDF718
:1031300065FB1049A1F1140000F0A6F8FDF750FA64
:10314000FFF74CFF10B1002007B000BD4FF6FF7035
:10315000FEF7F0FCFFF78AFA00F00EF9FFF73EFFEA
:103160000120F1E73038024000040240000802402C
:10317000001402403C00002070B5064600250024E3
:1031800000201E4908601E49C1F8AC021D490860B4
:10319000304600F0ABF9062000F03CFF00201A4951
:1031A000C1F88002012000F035FF012013490860BA
:1031B00000F030FF00201449C1F8800200BF15E084
:1031C0004FF6FF7000EA440400200C49086001201B
:1031D00000F020FF01200C49C1F880020748783830
:1031E000006808B1601C84B2681CC5B2102DE7DB12
:1031F0002411012003490860204670BD80824042AE
:1032000000804242B4024142008040422DE9F04138
:1032100094B080460027002406E04046FFF7ACFF4C
:103220002DF81400601C84B2282CF6DB002416E074
:10323000601C85B20FE03DF814003DF8151088427F
:1032400007DD3DF814603DF815002DF814002DF849
:103250001560681C85B2282DEDDB601C84B2272C1C
:10326000E6DB0027012404E03DF814000744601C5D
:1032700084B2272CF8DB2620B7FBF0F086B230466C
:1032800014B0BDE8F08100002DE9F04104460D4680
:1032900007480078FFF7BAFF064606480078FFF7B0
:1032A000B5FF074626802F800120BDE8F081000091
:1032B00064000020650000207FB504460D4602A989
:1032C00003A8FFF7E1FF064616B9002004B070BD61
:1032D000694601A8FFF7D8FF06460EB90020F5E7BA
:1032E000BDF80400BDF80C10884206DCBDF80C10D7
:1032F000BDF80400323081420CDBBDF80C00BDF893
:103300000410884236DCBDF80410BDF80C003230E1
:1033100081422FDABDF80000BDF80810884206DCB3
:10332000BDF80810BDF80000323081420CDBBDF85A
:103330000800BDF8001088421CDCBDF80010BDF884
:1033400008003230814215DABDF80C10BDF80420B7
:10335000881800EBD071C1F34F012180BDF808102F
:10336000BDF80020881800EBD071C1F34F0129800F
:103370000120ABE70020A9E710B51D4890ED0E0A2B
:10338000DFED1C0A20EE200ABDEEC00A10EE104A46
:1033900004222146C820FDF769F9154890ED0F0A6F
:1033A000DFED140A20EE200ABDEEC00A10EE104A2E
:1033B00004222146CC20FDF759F90D48B0F9401000
:1033C0000222D020FDF752F90948B0F9421002223A
:1033D000D220FDF74BF9064890F84410D420FDF7B1
:1033E0005AF90A242146D520FDF755F910BD0000F1
:1033F0001C00002020BCBE4C10B5044639480068B3
:1034000000284DD12CB13849A1F11400FFF754FF29
:1034100035E03549A1F11400FFF74EFF78B332488B
:103420002038B0F9400000EE100AB8EEC00A2E486D
:10343000203890ED0E1A808900EE900AF8EE600AAE
:1034400001EE200ABCEEC00A10EE100A264920390F
:1034500088810846B0F9420000EE100AB8EEC00AB2
:10346000084690ED0F1A008C00EE900AF8EE600A04
:1034700001EE200ABCEEC00A10EE100A08841A48B9
:10348000203890F8340000F0800020BBC02016499E
:1034900020398886084681898182018C01851AE05D
:1034A0001148203890F8340000F0800040B10E48F8
:1034B0002038808E20F080000B49203988860AE071
:1034C000002109482038818201854FF6FF700649A6
:1034D0002039888108840448203890F8340000F0AE
:1034E000800010BD048240423C00002070B50446BC
:1034F000002500BF17E004F0800018B101200B493F
:10350000086002E00020094908606006040E0020FF
:1035100007490860012000F07DFD01200549C1F840
:103520008002681CC5B2082DE5DB70BDAC8242424A
:10353000808240420080404270B50546AC6B00205E
:10354000E085E0842046FDF779FF70BD0168C96819
:1035500021F490710268D1600168496921F001018C
:1035600002685161202180F83A10704710B5044676
:103570002068C06820F040002168C860202084F8DE
:1035800039002046FEF70EF9002010BD70B5044644
:1035900094F83A0022284AD1A068B0F5805F13D190
:1035A000A56A206940B920684068C0F308002880F7
:1035B000A06A801CA06219E020684068C0B2288020
:1035C000A06A401CA06211E0206938B920684068F8
:1035D000C1B2A26A501CA062117007E02068406866
:1035E00000F07F01A26A501CA0621170E08D401EA5
:1035F00080B2E085C8B92068C06820F0200021684A
:10360000C8602068C06820F480702168C8602068A5
:10361000406920F0010021684861202084F83A00C8
:103620002046FEF77BF8002070BD0020FCE702205A
:10363000FAE700002DE9F84F04462068006920F4FD
:103640004050E1680843216808612169A068084387
:1036500061690843E169084300902068C06849F245
:103660000C618843009908432168C860206840695C
:1036700020F44070A169084321684861E069B0F511
:10368000004F75D1E3492068884203D0E2492068A1
:1036900088426FD1FDF74AFB814602206168A0FB9A
:1036A00001510B461920A9FB00712A463846FCF748
:1036B00087FD6421B0FBF1F04FEA001A0220616837
:1036C000A0FB01510B461920A9FB00712A46384680
:1036D000FCF776FD074602206168A0FB01510B460E
:1036E0001920A9FB00B12A465846FCF769FD642160
:1036F000B0FBF1F000EBC00101EB0010A7EB800084
:10370000322101EBC0006421B0FBF1F000F0F800C1
:103710000AEB400A02206168A0FB01510B46192008
:10372000A9FB00712A463846FCF74AFD07460220ED
:103730006168A0FB01510B461920A9FB00B12A4684
:103740005846FCF73DFD6421B0FBF1F000EBC001F1
:1037500001EB0010A7EB8000322101EBC0006421D7
:10376000B0FBF1F000F007005044216888604FE1A1
:103770006EE0FFE7FDF7CAFA814602206168A0FB10
:1037800001510B461920A9FB00712A463846FCF767
:1037900017FD6421B0FBF1F04FEA001A02206168C6
:1037A000A0FB01510B461920A9FB00712A4638469F
:1037B000FCF706FD074602206168A0FB01510B469D
:1037C0001920A9FB00B12A465846FCF7F9FC6421F0
:1037D000B0FBF1F000EBC00101EB0010A7EB8000A3
:1037E000322101EBC0006421B0FBF1F000F0F800E1
:1037F0000AEB400A02206168A0FB01510B46192028
:10380000A9FB00712A463846FCF7DAFC074602207D
:103810006168A0FB015003461920A9FB00B12A46AC
:103820005846FCF7CDFC6421B0FBF1F000EBC00181
:1038300001EB0010A7EB8000322101EBC0006421F6
:10384000B0FBF1F000F00700504421688860DFE031
:1038500070492068884203D06F49206888426BD144
:10386000FDF764FA814604206168A0FB01510B4614
:103870001920A9FB00712A463846FCF7A1FC8246B4
:1038800004206168A0FB01510B461920A9FB0071BF
:103890002A463846FCF794FC6421B0FBF1F000EBBB
:1038A000C00101EB0010AAEB8000322101EB0010F7
:1038B0006421B0FBF1F000F0F00A04206168A0FB85
:1038C000015003461920A9FB00712A463846FCF72F
:1038D00077FC6421B0FBF1F00AEB001A0420616868
:1038E000A0FB01510B461920A9FB00712A4638465E
:1038F000FCF766FC074604206168A0FB0150034604
:103900001920A9FB00B12A465846FCF759FC64214E
:10391000B0FBF1F000EBC00101EB0010A7EB800061
:10392000322101EB00106421B0FBF1F000F00F0038
:103930005044216888606BE0FDF7E8F98146042077
:103940006168A0FB015003461920A9FB00712A46BB
:103950003846FCF735FC824604206168A0FB015024
:1039600003461920A9FB00712A463846FCF728FCBB
:103970006421B0FBF1F000EBC00101EB0010AAEBF9
:103980008000322101EB00106421B0FBF1F000F067
:10399000F00A04206168A0FB015003461920A9FB2E
:1039A00000712A463846FCF70BFC6421B0FBF1F0AD
:1039B0000AEB001A04206168A0FB0170034619207D
:1039C000A9FB005001463A462846FCF7F9FB07469A
:1039D00004206168A0FB015003461920A9FB00B137
:1039E0002A465846FCF7ECFB6421B0FBF1F000EBF3
:1039F000C00101EB0010A7EB8000322101EB0010A9
:103A00006421B0FBF1F000F00F00504421688860A1
:103A1000BDE8F88F0010014000140140014691F804
:103A2000390021282CD18868B0F5805F0FD10A6A4F
:103A30001088C0F308000B685860086918B9086A54
:103A4000801C086209E0086A401C086205E00B6AF5
:103A5000581C086218780B685860C88C401E80B2E9
:103A6000C88458B90868C06820F080000B68D86026
:103A70000868C06840F040000B68D86000207047BC
:103A80000220FCE710B500240C48FDF7E3FC00BF62
:103A900001E0641C00BF0948FDF7D1FC2028F8D1E3
:103AA00000BF002401E0641C00BF01220449034858
:103AB000FDF7FCFD0028F6D100BF10BD58CC00205A
:103AC0006E00002010B5044609480A4908600846FF
:103AD000446000218160C160016181610C2141610C
:103AE000FDF762FD012204490248FDF7DFFD10BD2C
:103AF0000010014058CC00206E00002000BFFEE7FF
:103B00000FB4054B10B503A9044A029800F076F8EB
:103B100010BC5DF814FB0000854100087000002017
:103B200002480068C0F30220704700000CED00E07E
:103B300010B5002804DB0A07130E054A135406E0EB
:103B40000A07140E034A00F00F031B1FD45410BDC4
:103B500000E400E018ED00E000B52DED048BB0EEC0
:103B6000409AF0EE609A83B051EC190BFCF7D4FC4C
:103B700041EC180B18EE100A18EE901A8DED008B20
:103B8000002818BF0120084320F00040C0F17F60EA
:103B900000F1E040C00F14D019EE101A19EE900A8F
:103BA0008DED009B002918BF0121084320F0004043
:103BB000C0F17F6000F1E040C00F04BF012000F0C1
:103BC00017F8B0EE480A03B0F0EE680ABDEC048BBB
:103BD00000BD02E008C8121F08C1002AFAD17047D0
:103BE0007047002001E001C1121F002AFBD170477D
:103BF0000149086070470000740000202DE9FF4F64
:103C00008DB09B460F460446002606E025280BD0C3
:103C10005A460F999047641C761C20780028F5D1ED
:103C200011B03046BDE8F08F0025A8460122984922
:103C300000E0054314F8013F203B02FA03F008427C
:103C4000F7D120782E2817D114F8010F45F004057C
:103C50002A280ED06FF02F022078A0F13001092918
:103C60000AD808EB880102EB410100EB0108641C53
:103C7000F2E757F8048B641C20786C280DD004DC24
:103C80004C2812D06A2811D104E074280DD07A286B
:103C90000CD10AE045F4001507E0617845F4801581
:103CA000814202D1641C05F58015641C2278692AC2
:103CB00045D008DC002AB3D0582A69D0632A10D036
:103CC000642A08D13BE0702A67D0732A13D0752A82
:103CD0005CD0782A5CD010465A460F999047761CE3
:103CE000D3E017F8040B8DF8000000208DF80100D8
:103CF000E946012003E057F8049B4FF0FF306907C5
:103D00004FF0000501D40AE06D1C45450DDA8542EF
:103D1000FADB19F805100029F6D106E06D1C854282
:103D2000FCDB19F805100029F8D12E4404E019F83D
:103D3000010B5A460F9990476D1EF8D2A5E00A2054
:103D40000021CDE90801C5F3025002280DD001CFB2
:103D5000C117031E71F100030DDA4FF0000CD0EB18
:103D60000C006CEB01012D2308E0FF1D27F0070775
:103D7000F7E80201EDE72B0504D52B238DF8283059
:103D800001233BE0EB0739D02023F7E70A2000E0CE
:103D900010200021CDE9080107E01020002145F0A6
:103DA0000405CDE908014FF00808C5F302500228C8
:103DB0000FD001CF00214FF0000A2B071FD5702A2A
:103DC0000DD0DDE908C38CF0100C5CEA030C0CD0BC
:103DD00015E0FF1D27F00707F7E80201EBE7402297
:103DE0008DF828204FF0010A0BE050EA010306D0BD
:103DF00030238DF828308DF8292002239A46582A3E
:103E000004D024A20DF120090B9209E026A2F9E7C3
:103E1000DDE90823FCF7D4F90B9B9B5C09F8013D15
:103E200050EA0102F4D1ADEB090020300890680798
:103E300001D44FF001080899884502DDA8EB010084
:103E400000E000208046002506E00AA85A46405DB2
:103E50000F9990476D1C761C5545F6DB04E0302029
:103E60005A460F999047761CB8F10001A8F1010855
:103E7000F5DC05E019F8010B5A460F999047761CBE
:103E80000899481E08900029F4DC641CC5E600006F
:103E90000928010030313233343536373839616220
:103EA00063646566000000003031323334353637E4
:103EB0003839414243444546000000002DE9F047AF
:103EC0002DED048B04469FED4B0AF0EE408A9FEDEA
:103ED000490AB0EE409A9FED470AB0EE408A0020B2
:103EE0002CE0002127E0C0EBC00201EB820204EBD2
:103EF0008202D2ED000AB0EE600AB5EEC00AF1EE21
:103F000010FA17DD00EE901AB8EEE01AF0EE680A2B
:103F100041EE000AF0EE608A00EE900AB8EEE01A78
:103F2000F0EE490A41EE000AB0EE609A78EE000A1F
:103F3000B0EE608A491C1C29D5DB401C1C28D0DB54
:103F4000B5EEC08AF1EE10FA03D1BDEC048BBDE8EA
:103F5000F08788EE880AF6EE000A30EE200ABDEE01
:103F6000C00A10EE105A89EE080AF6EE000A30EE8A
:103F7000200ABDEEC00A10EE106AC5F10E07C6F1A8
:103F80000E081FB9B8F1000F00D1DEE74FF444610D
:103F90001948FCF75FF9002022E000211DE0CA1952
:103FA00000EB0803002A17DB1C2A15DA002B13DBB1
:103FB0001C2B11DAC0EBC00C01EB8C0C04EB8C0C4D
:103FC0009CED000AC3EBC30C02EB8C0CDFF82890CD
:103FD00009EB8C0C8CED000A491C1C29DFDB401C12
:103FE0001C28DADB4FF4446203492046FCF719F938
:103FF00000BFAAE700000000D809002030B5044641
:10400000002504E04FF47A7000F004F86D1CA5421E
:10401000F8D330BD70B5034600224FF0E026756935
:104020000D4E366803FB06F44FF0E026B16910E050
:104030004FF0E026B06988420BD0884202D20E1AB7
:10404000324402E02E1A0E4432440146A24200D30A
:1040500000E0EDE700BF70BD680000201CB54FF424
:1040600078403149088031A01021CDE90010314855
:104070004388028800210A20FDF7AAFF2EA0102104
:10408000CDE900102B494B880A880988283988B265
:104090001921FDF79DFF1F20009026484388408886
:1040A000103881B28B227820FDF74EFE4FF4784015
:1040B0000090204843884088103881B29F228C208D
:1040C000FDF742FE4FF61F0000901A4843884088D3
:1040D000103881B2B322A020FDF736FE4FF4FC6009
:1040E0000090144843884088103881B2C722B42019
:1040F000FDF72AFE47F6FF7000900E48438840887F
:10410000103881B2DB22C820FDF71EFE4FF6E070AA
:104110000090084843884088103881B2EF22DC20A4
:10412000FDF712FE1CBD00000E0000204368617206
:104130003A2000001200002052535400F0B504460B
:104140000D4616464FF0FF3019E04FF0FF3113E0F7
:1041500062182B18002A0EDB542A0CDA002B0ADB1B
:10416000542B08DA0127C3EBC30C0CEB4C0C02EB0D
:104170008C0C06F80C70491C0129E9DD401C012853
:10418000E3DDF0BD00BF054A126802F04002002ADC
:10419000F9D0C2B2014B5A607047000000100140D4
:1041A0001CB500200649088006A01021CDE90010AA
:1041B0000948438802880A210846FDF709FF1CBD0B
:1041C0000E000020546F7563682054657374204599
:1041D0004D4E495354000000120000200EB54FF020
:1041E0001F090024A046FCF727FC072302224FF4F6
:1041F000A8710820FDF7B6FFA820FDF7A9FF4FF42E
:10420000E130FFF75FFCFDF72FFFFEF77DF8FDF7CC
:1042100005FCFEF73DFFFFF7C3FF4FF4FA60FFF721
:10422000EDFE4FF6FF70FDF785FCFFF717FF08E185
:104230000020FDF72FFC0746012F09D1FEF716FAE3
:104240004FF6FF70FDF776FCFFF708FF0024A0464D
:104250000020FFF7D1F8002870D07A488589068CB5
:10426000052D4DDB052EFCDB77480088401FA8425A
:1042700046DD75484088401FB042F9DDB8F1030FB4
:1042800016DD002C14DD40F25720844210DA601E47
:104290006E4931F820004FF6FF71884208D0084679
:1042A0006A4921F8240001EB84014880601C84B233
:1042B0004FF00008644800883C38A84221DA3C2EC0
:1042C0001FDA4FF6FF7000905F484088113883B2C4
:1042D0005D480088401E82B200210846FDF734FD8B
:1042E0004FF478405A4908805AA01021CDE90010B7
:1042F00055484388028800210A20FDF769FE002402
:104300005BE0514840881238B04222DA4E4840887B
:10431000B0421EDDDC2D02DD4FF6E0794DE0C82D08
:1043200002DD47F6FF7948E0B42D02DD4FF4FC6969
:1043300043E0A02D03DD4FF61F093EE041E08C2D48
:1043400002DD4FF4784938E0782D36DD4FF01F0953
:1043500033E006F1020C1FFA8CF305F1020C1FFA90
:104360008CF2A6F1010C1FFA8CF1A5F1010C1FFAD9
:104370008CF0CDF80090FDF7E7FCB4F5167F1CDA61
:104380009CB1601E314931F820004FF6FF71884220
:104390000BD0601E2D4931F82000A84205D1601EC7
:1043A00001EB80004088B04207D0284820F8245014
:1043B00000EB84004680601C84B20220FFF71EFEE2
:1043C0003FE008F101001FFA80F80A20FFF716FE0F
:1043D000B8F1500F35D1012C33DD204A21461B485E
:1043E00000F050F81D4800F0C1F90546002D26DB0D
:1043F0002F2D24DA1A48405D8DF8080000208DF832
:1044000009009DF80820294616A0FFF779FB4FF612
:10441000FF7010236E22002100904A20FDF794FCCB
:104420004FF478400A49088002A81021CDE9001015
:1044300005484388028800214A20FDF7C9FD002471
:1044400000BFF5E61C0000201200002078000020CC
:104450000E000020436861723A200000C8BF0020AF
:10446000D084010850726564696374656420696E64
:104470006465783A2025642C20436861723A2025CF
:10448000630D0A002DE9F74F2DED068B8CB0044625
:1044900089464FF444611498FBF7DCFEB9F1000F34
:1044A00004D10CB0BDEC068BBDE8FE8F4FF6FF705B
:1044B0000B9000200A904FF6FF70099000200890A2
:1044C000079000BF31E034F820104FF6FF729142A0
:1044D00000D128E034F820200B998A4202DA34F81F
:1044E00020100B9134F820200A998A4202DD34F81A
:1044F00020100A9104EB80014A8809998A4203DA64
:1045000004EB80014988099104EB80014A880899ED
:104510008A4203DD04EB8001498808910799491C10
:1045200089B2079100BF411C88B24845CBDB079890
:1045300000B9B6E7DDE90A01401A00EE100AF8EE0C
:10454000C08ADDE90801401A00EE100AB8EEC09AF0
:10455000F4EEC98AF1EE10FA02DDB0EE680A01E06D
:10456000B0EE490AF0EE409AF5EEC09AF1EE10FA7C
:1045700003D1B7EE000AF0EE409A9FED790A80EE83
:10458000298A68EE880AB0EE001A80EE810ADFED13
:10459000750A30EEC0AA69EE080AB0EE001A80EE85
:1045A000810ADFED700A70EEC0AA41F690316E48C4
:1045B000FBF750FE4FF0FF37384606904FF00008EB
:1045C0008EE034F828004FF6FF71884202D14FF098
:1045D000FF3781E034F828100B98081A00EE100A13
:1045E000F8EEC00AB0EE4A0A00EE880ABDEEC00A34
:1045F00010EE105A04EB880041880998081A00EE62
:10460000100AF8EEC00AB0EE6A0A00EE880ABDEEA3
:10461000C00A10EE106A002D00DA0025532D00DDCF
:104620005325002E00DA0026532E00DD5326781C79
:10463000002849D0E81B002801DB014600E0414288
:104640000591AF4201DA012001E04FF0FF30049004
:104650000699701A002801DB014600E041424942F8
:1046600003910698B04201DA012001E04FF0FF30DB
:1046700002900399059800EB010A0097DDF818B045
:104680001FE0394A59460098FFF758FD0098A842A4
:1046900002D1B34500D115E04FEA4A0001900399D9
:1046A0000198884205DB03988244049900980844E5
:1046B000009005990198884203DC0598824402988D
:1046C0008344DEE700BF04E0274A31462846FFF76F
:1046D00035FD2F46069600BF08F101001FFA80F84D
:1046E000C845FFF66EAF002033E000212EE0002227
:1046F000002317E0002512E001EB41062E4400EBF9
:10470000400C9C44CCEBCC0C0CEB4C0C06EB8C061C
:10471000DFF854C01CF8066006B1521C6D1C032D56
:10472000EADB5B1C032BE5DB00EE102AB8EEC00AC7
:10473000F2EE020A80EE201AC0EBC00301EB830503
:10474000149B03EB850383ED001A491C1C29CEDB67
:10475000401C1C28C9DB1498FFF7B0FB00BFA0E683
:104760000000704200002842181600202DE9F04396
:104770000646002052E000214DE0002248E0C94BEF
:1047800003EB800393ED001AB0EE410A002322E010
:1047900000241DE0151901EB030CCCEBCC0C05EB50
:1047A0008C0506EB8505D5ED001A00EBC00503EB83
:1047B000430C65442544DFF8F0C20CEB850595ED0C
:1047C000002AB0EE401A01EE821AB0EE410A641CD3
:1047D000032CDFDB5B1C032BDADBB5EEC00AF1EE4A
:1047E00010FA02DDB0EE401A01E09FEDB01A1A2374
:1047F00043431A24634301EB810404EBC10403EB3C
:1048000044031344AA4C04EB830383ED001A521CA7
:104810001A2AB4DB491C1A29AFDB401C0828AADB82
:1048200000224BE0002046E0002141E09FEDA11A6C
:10483000B0EE410A002325E0002420E01A2555436C
:104840004FF01A0C05FB0CF503EB400C0CEB8C083D
:1048500008EBCC0C05EB4C0504EB410C6544DFF890
:1048600050C20CEB8505D5ED001AB0EE611AB4EE1E
:10487000C01AF1EE10FA01DDB0EE410A641C022C00
:10488000DCDB5B1C022BD7DB02EB820303EBC203F6
:1048900003EB830404EBC30300EB800404EBC004CC
:1048A00023440B44844C04EB830383ED000A491C2E
:1048B0000D29BBDB401C0D28B6DB521C082AB1DBDE
:1048C00000206CE0002167E0002262E07B4B03EBFC
:1048D000800393ED001AB0EE410A002339E0002472
:1048E00034E000252FE003EB830C0CEBC30C0CEB46
:1048F0008C0808EBCC0C01EB040808EB880909EBE9
:10490000C808C44402EB0508C444DFF8AC8108EBD6
:104910008C0CDCED001A4FEAC00C0CEBCC0C03EB5A
:10492000C308C44404EB4408C444AC44DFF8908199
:1049300008EB8C0C9CED002AB0EE401A01EE821AB6
:10494000B0EE410A6D1C032DCDDB641C032CC8DBCB
:104950005B1C082BC3DBB5EEC00AF1EE10FA02DDDA
:10496000B0EE401A01E09FED511A00EB400303EB5B
:10497000C00303EB430404EBC30301EB410404EB6A
:10498000C104234413444F4C04EB830383ED001A0A
:10499000521C0B2A9ADB491C0B2995DB401C102862
:1049A00090DB002246E0002041E000213CE09FED4A
:1049B000411AB0EE410A002326E0002421E002EB78
:1049C000420505EBC20505EB450C0CEBC50503EBF9
:1049D000400C0CEB4C0808EBCC0C654404EB410C90
:1049E0006544DFF8E0C00CEB8505D5ED001AB0EEAC
:1049F000611AB4EEC01AF1EE10FA01DDB0EE410A10
:104A0000641C022CDBDB5B1C022BD6DB02EB82037B
:104A100003EB830300EB800423440B442A4C04EB98
:104A2000830383ED000A491C0529C0DB401C0528CF
:104A3000BBDB521C102AB6DB0027DFED1E0A00206C
:104A40002AE0224901EB800191ED001AB0EE410A03
:104A5000002115E01C4A02EB8102D2ED001AC1EBE5
:104A6000011202EB41120244194B03EB820292ED58
:104A7000002AB0EE401A01EE821AB0EE410A491C3B
:104A8000B1F5C87FE6DBB4EEE00AF1EE10FA02DD24
:104A9000F0EE400A0746401C2F28D2DB3846BDE81E
:104AA000F0830000F44B0008D44A00080000000026
:104AB000A8310020EC78ADE068A40020145E000866
:104AC000144C00082886002088B9002014840108AE
:104AD000545E00080B99CBBDE44CD3BD1552FE3E8D
:104AE000C2DD293E4AB60E3F3997023FA4380B3F3C
:104AF000BE89A13DF642813D8FC380BE83DF56BE95
:104B00000D39F6BE8DD3F8BEDC2BA3BEDD7CC3BE53
:104B100041F12BBF2E9070BEC9B0AABEAF5D6E3FF3
:104B200056D5333F52B7A3BE4A7FEF3D0E2F68BF25
:104B3000CD5793BF349C82BF01A43ABFBC209A3E9C
:104B4000A22A36BF5E2E16BF5AF2F8BC7E377DBE53
:104B5000000226BE588CDA3ED3A11B3FC9AD513F9F
:104B60009D7FFB3EE7FBC9BE27DC3B3EE3160B3FC8
:104B70004353363EEC2F2F3F651A213F9F01353DB1
:104B80002F86223F12D9773EA94D1C3F2CBA8D3E6D
:104B90007E8D843DC190153F1C0BCA3D0A2F413DBF
:104BA0006F101D3E3161143F0AF3323F86736D3E34
:104BB00021057FBE884C79BF7E00FA3E5585D63EE2
:104BC000A9F6693E971D0E3F2195C23D5872113FCF
:104BD000A8DF1DBF2F4D51BD5ED8DA3E1EE124BFB8
:104BE000715985BDCB9C1E3FCA1645BF2DEC893D32
:104BF0004CA7393F9148DB3AA3AC3B3F9B04CF3EE7
:104C0000747CB4BA7D7896B9A741513BA4C5A13E46
:104C10004C1CD93DBA137CBEFC36ACBE097135BE06
:104C20009FCA693D679AF0BD6328FFBEFF5C043EE2
:104C30008C84A63E8B8C2E3E7F162B3E4A42623ED3
:104C4000F94A803E3700BBBD51A17A3DC37D743E19
:104C5000F9829EBE2639D8BE1EA65DBE8010693E72
:104C60007592B53EBC5B093EBAF8DB3D2B50EB3D7F
:104C7000CE1C923C9A0906BDF3E6A8BE03B598BEC9
:104C80001EDCBDBE863876BE6B9B32BE0B47983E9F
:104C90009BC8AC3D7C81C1BE2F52E83D7D76B83EBD
:104CA0003E3F0C3E5CC7D8BE1040BABEFE65D7BDC5
:104CB000C92102BEC87D4BBE44DB49BFA1DB1B3E00
:104CC0009A955D3EA01B1ABD57EE85BE650193BC4B
:104CD000E1968FBB221B383EE8DE53BEA6B8D2BE9B
:104CE00084639E3E1DABBC3E97FF903E583889BE04
:104CF0009D64EBBDB5FF71BE8BC49C3EA226DA3D20
:104D0000532013BE56B79A3E1879D13EE2ACB83E56
:104D10009A78F7BEDEAE57BE0265DBBEDC119EBEE2
:104D20004E2B1DBF95D883BF611880BE13D51B3D88
:104D3000BD3429BF6E30F4BD92E8A53DD2559A3DF1
:104D4000BBB82D3E50FD033CECDE8ABC899AC83DC1
:104D5000AE7E8C3D1B63873D290680BE137FBCBEA3
:104D6000D63605BED3BC33BEE1422EBE7E8C293E74
:104D70008446E8BE022C72BCA9A11DBEFA26093FDA
:104D80006C21A83DFED2A23BDF70DF3D13D26A3E0C
:104D900075ABBF3EB474453EBD6F7C3EBBD6DE3CBA
:104DA000705EDCBD6B638C3E27300D3EABE7B43EDE
:104DB0003755973DFD1231BD8F6E043EE4F39A3EA8
:104DC0003E7B863E11E0F43C80B81B3EFCC702BD32
:104DD0000A4CE73DD28B9A3D67B96C3DE353E0BD89
:104DE000FE0AF9BD579327BBD4D294BEF5F23BBE61
:104DF000D0613E3D02B819BE7D953CBDA4345B3DFB
:104E0000EBAA40BDEAD0193E9D4A863C3F542ABEDB
:104E10003E0716BC116F9DBCB08EE3BD4E2B05BB8B
:104E20006F66B4BD73BDED3CD68EA23DC2FBCABD5C
:104E3000C9763E3D3DD7F7BDEB1D6E3DA2EF0EBEE0
:104E4000EDF4B3BE97AA343DADDD96BEB05803BDB8
:104E50009B20EABC3E21ABBE844B9FBE666894BEDD
:104E600070B28DBE2B687ABECF2EFF3DD6355ABEAE
:104E70002E92563EE203C33E9F1C653EFC54753E97
:104E8000B1C1823E23D9C33D7522213EDB301A3E9B
:104E9000EACE9B3E1CB33C3E848212BD406CC9BD31
:104EA000E830DF3C355F553E1399793E4E0BDE3CD2
:104EB0005516653E5C56913EE99B743D452B77BD8A
:104EC0002310C7BE0E164EBE6ABFF5BD83A4B7BE83
:104ED000180A28BE85EF6D3EDF8A44BC3719653E4F
:104EE0000536EF3E914209BF98A3AFBE61FCC4BE38
:104EF000596EB1BED5924EBE3290E73C7DCE9DBD7F
:104F00009AEDA23EAD328B3ED107A3BE9C8CBABEB9
:104F10008A22ACBE6ABD9FBEC78448BEC022BFBB4A
:104F2000302D0ABEFE9E483EB5DCA13E417F01BE4B
:104F30003F7316BE967840BD6F669CBECDAC05BE75
:104F4000EAAF273E4DBA3DBE056E0D3E062DC43D6F
:104F500062BE4CBE0003A1BDCB4809BF7365B03D26
:104F6000E620683C5AD67DBDC3D6DC3EE277333EB0
:104F7000D5E76A3D31269DBD55A50DBE4F3B7CBC96
:104F8000946B8ABD4C35B33D00E3693E3B8F4A3E8E
:104F90002713473E84D73E3EACFE38BE02469FBE36
:104FA0005C3AA6BE36C98FBD7366DBBD998192BEE1
:104FB000FC8926BFC7F216BFBB44C5BEAE9B123EDE
:104FC000834CB23D546EC2BDD4B9A2BCF373C33C92
:104FD000236A223C6D1A2BBEEB19723E21908B3E48
:104FE000662F4BBED9978CBDC8D1BC3D6BF02E3E11
:104FF0002CD6883E1152B73E7CEEB43E88F1923EEC
:105000003CF6033E3DB80BBEE29198BD69E1D2BDCE
:105010001ADEBCBE7D0995BD7712113E41D518BE82
:10502000E5D40E3DEF53F53D61555DBECB691FBE26
:1050300099B9403E4D8297BDBC943ABC81B13E3D8A
:10504000AE811D3E3815693D1074D43D3F8D9BBD2A
:105050003A7A3CBE43E3193EFE610B3E62BE2C3EF3
:1050600031EA2A3EE9F1833E0AF6BF3D97C970BD99
:105070007CED89BE45481DBEFA2A793DADF9F9BEE1
:10508000E482DBBEEE047BBD78CF3DBF6B666DBFB7
:10509000FE7F10BF0EA01F3E728B19BEAB941EBCCC
:1050A000C8409EBD06BD37BD0322C43DD314213E7A
:1050B000BE2DD83CB89473BD8AE714BF43E56FBEDC
:1050C00092CA74BE484ED6BED9792BBE137CA3BEFD
:1050D000EB1C13BFFC8EB9BE634397BEC42206BE51
:1050E000ECDD9F3CC92077BEFCAB873DBAF7803E24
:1050F000902E36BD0F0B75BD8E59963E1008C43EDE
:105100002908B63E0A2DEBBD2FDC193EDDB2A3BD4A
:105110008368AD3D24801B3DD13E263E2DB53E3EED
:10512000520EE6BD802A0E3E35B712BEA9DE0A3EFB
:10513000D0D205BE17103ABEA1B90E3D5359F43D69
:105140006842133DD4D4723DD74C3EBCEE96E43A4F
:10515000555011BE08E492BDC43EE1BD27C246BD14
:105160001B67F33D74B76BBDC7D41DBD8A5AFA3DAA
:105170004C7115BD9C18B2BD6189873CB0385C3D4F
:1051800033A32FBE12DA623E02B8B9BDEF703BBD49
:10519000E6CD893EABAF7EBED0B5233F6345AD3E85
:1051A0008523A03E4183393F7E8BCE3DC570953E21
:1051B00001BF8E3E4580F3BDECDBC9BD10061EBEAF
:1051C0004D814C3CC80A8E3E9A42173EEB1D5EBE96
:1051D0003291523BB9AB97BD31EAFABD6823D7BDD6
:1051E0008E3B253E295D8ABE9A5DCFBEB114B9BE05
:1051F000944AF83CB001F13DC72C3B3D215B563D44
:105200003DD7173E1EA4B73EEE940E3DD68E8ABE05
:105210004F025BBE7E1AD73E28D5A63E7A6FD43E9B
:10522000279FFE3DE09C913D963FDF3C683D8C3ED4
:10523000003C623EC615273ECE34B1BEAA9AC0BE1F
:10524000B7B6D8BEBD8D7DBE3291C2BE3EAF48BEA0
:105250000F7F4D3DC383063EC8B2703EB0C586BECB
:1052600016F915BE450E113E315D88BD9F59B2BD80
:10527000D5231DBE1138423E6616A13D70D2543E64
:1052800039D5FABDD3C08FBDEA9106BDD670F13DC8
:10529000CBDA863D3B195C3D9EB69E3ECE34C13E88
:1052A000C807CD3E8AAF76BE274B2DBEBFB719BE0D
:1052B000A8A604BE812226BE01DE02BDC11A3BBFE4
:1052C0004887CFBE2CD5253EE44AC5BE55BF82BE19
:1052D00023116A3E3CBC173E116E723EEF90523E67
:1052E00012FB9C3E868F883D2FF91FBCFB23CC3DD3
:1052F000189514BD44BF76BDB03C283E2D60A2BDBC
:10530000D19110BF1094B3BEE71880BEECF704BF74
:1053100054E222BF5CAEE6BE807FDABE2C6519BDCA
:105320004CA820BEFAEEDEBEDD5BF13DAFB2D6BDCD
:105330009BC7C1BE8388543E8BA653BE05172BBEA8
:10534000473D243EC903913DB5DD84BCD098993ECC
:10535000388575BEFF7724BEBD8DCD3BB75F4EBE91
:105360009D2BC2BEB45A603DBE149EBC8C84863E4A
:105370000379663E674895BC986E123DD6C7833D5B
:10538000800B223E897ECDBD9A41BC3DF838533B0F
:105390003B55963EEF20F63D4240BE3BEBAB6B3DAE
:1053A000683D8C3E3D0AB7BD643EC0BDECDF35BDF7
:1053B000EFE1123C6380C43DA5824ABD5C3EB2BDB4
:1053C00091BADDBDC2344C3DA01859BDA0C6FDBD8B
:1053D000DBC1E8BDE415C0BEF7CD81BFA73DADBEC2
:1053E000A472FBBE9BAB76BE809B45BDF243E53EFF
:1053F0001F10283D57AF223E42B5A13D8542A43D36
:10540000ECA08A3E083C10BE5264ADBD9F8F623E48
:10541000DC2A98BEF65D413EBFBA4ABEE675B4BE10
:1054200040DDC0BE9B92DCBE02F1BABCA180EDBDE6
:10543000560E9DBEA5D786BD3F5482BE55C05D3E6B
:10544000C0957C3E21E587BD454A733E75ADCD3E96
:10545000190145BE2EC80E3FF5F68F3EBB0DEABDC5
:10546000B58DB73E1100FC3D44A288BE054FA13E5C
:10547000548C63BE5665BFBDD66E3BBEF5BAD5BE75
:10548000F163CC3DE5B5123ED5E70A3E21E77D3D0F
:105490005B0CAE3E757206BEB2F25BBED5EAAB3CAB
:1054A000FFD0ECBD9E5D8E3E15E00BBEAA4885BDCB
:1054B000D5CF1B3C64EA2EBDA31F4DBD81243CBE4D
:1054C00032209B3DC53A55BE58C7313D3C161BBEE8
:1054D0000D3700BE31B630BEC74600BE0E6B9ABE59
:1054E00010912ABE66D9533DEECE4ABEA6D590BADB
:1054F00036E7303F0DE2733E27FA4CBE6343273E4A
:1055000098862DBF3962C53E8BA421BFF92FA83ED6
:10551000B1A4243F7654D53DDE57C53D96B23CBE7E
:105520003F8E663DC975133D8FFBB63D9CA59CBE65
:10553000912854BE997EC93D2994A5BD3694FABEE2
:1055400085E97BBEECDE0ABCE275ADBE115788BFB3
:10555000F1F5153E61C2803EEBA9DDBEC938A63E1D
:1055600086E7EDBEF19F22BFB725623E7B83AFBECB
:10557000CDCB29BF08E9B93ED38598BEF0C1B3BEF3
:10558000CD1D7D3E6A6C3F3E935591BC7E55AEBCB1
:105590007EE05ABEB648BABD24D48CBD094F88BE41
:1055A000DE0334BD8D09B13D29E78B3C221C9BBE37
:1055B00032AE38BE3469F33D166EF9BB2EFE8EBE98
:1055C0006BF41ABEF030ED3C4FC9393E55DB7D3EE1
:1055D0004606D93DBCEA81BE49F5BD3D0B0C493EAE
:1055E00002F5DEBE8B36EFBE1957DC3D0C21873E3F
:1055F000E8A0E33E67D1833E50FCF8BD83C3AB3DDA
:105600008EAEAA3E5C74323EE50944BEC8B3933EFA
:10561000AB24AA3EE7011CBED2C73CBF0B258B3E84
:1056200080637F3E82380FBDAE11A9BEB56FAE3D1F
:10563000BE6B0C3FEFA99CBB8C6665BDF4FEFFBD45
:10564000535BCABDF3CA953D4AD09FBD42B5E1BD8B
:10565000BD38F13CF2EDBD3DCEDD2EBD3A92EBBD45
:1056600084D5D8BD69E4F3BD9ECFA03DF0DFFCBD7D
:10567000C7478BBC378911BEE15D8E3D056D723D1C
:10568000481ADCBDE5479C3DBB42DFBD68CE7ABC15
:105690006DE2E43CE71765BDB9FC873BF72084BDAC
:1056A00082AE7D3DF29881BBECA17DBDF277EF3BF0
:1056B0009C3322BB51BF8B3C8C2BAEBC2B4B343D5F
:1056C0003EB279BD20F10BBE80B86B3D08E59D3D33
:1056D00044FCC3BB68079C3D4374083D4CDE803CE2
:1056E00061E37A3D1343F2BC7B11EDBC59C1EFBCC1
:1056F00056D375BBD575A83DD8F074BC72A8DFBC75
:105700001BBCEFBDDDEB643D96257ABD59A4E9BD18
:10571000E9EFC5BDBAD709BE869003BE8EC897BD56
:10572000302F00BE39EF7FBCE1ED01BE522CD7BD5A
:10573000E48504BEBA15E23D1BF2CF3C323DA1BD6B
:10574000438D82BD76E09C3C8BC4C43D0AA319BD49
:10575000622E29BD143FA6BDCA3515BEBF0A703DD5
:10576000CE1A5CBEAA7E35BE732D2A3E003BCFBE4C
:1057700060E726BCAF3F493DAB97FF3D1D74C9BDF7
:10578000ACE037BEA6D6BB3D4BC9B23D52B7BBBE9F
:105790005F43703D6398633E94F6E63DCF4CB03D69
:1057A00016340DBE8B6C57BEC8D3F23C44FA5DBEB6
:1057B00032CABBBE76338B3E3BE501BE1C7E67BE64
:1057C00080D767BDDA56B3BC973A883D4F5DB1BE0E
:1057D00071C79B3C4163463E12C1B8BE4AEE70BDE4
:1057E0006B27AABD390DB1BDFC18F33CBF9E3F3EEF
:1057F00043AE04BEC9552C3EFF1F673E336BB9BE96
:1058000035611B3EF1F6203EA6D1E4BCE4D78F3DC6
:10581000FC1AC93CA54C2ABD0D6CB5BDEB1C833DE3
:1058200026709BBECD5804BE50FD033E1349343D47
:10583000F4DF43BEC1374DBDF3E7FB3DA72556BDA1
:105840004432C43DCB1358BE680566BEEA780C3DB1
:1058500085442ABE10CDDC3E03CEDA3E4F3DF2BD7C
:10586000371C8E3EBBECF73EEE5E6E3C8319833EEA
:105870006AD92E3FA433883E8E94AD3C7D5EF1BD47
:10588000EF000F3DD8BC2A3D807FEA3D5B238ABEF6
:10589000BDAC093CF9155B3E4A5E6DBEC58C50BE81
:1058A000A69883BBEF3B56BE23A230BFC66EDFBDBA
:1058B000A31D573EFAED4BBE286477BE9625AABEBF
:1058C000328FBC3D8125E73ECADC84BEDE934FBFEC
:1058D000D89C73BE83A59ABD0917FABE0D33E4BEEA
:1058E0008062843E2C0D0C3E55690BBD88842FBD13
:1058F00076E09C3DFB94833EF86DC8BEB0AD87BE9C
:10590000D09D60BDF696B2BD6C3E6EBE137EB9BE34
:105910006E68CA3B598AA4BDFFB2FBBDD09AA7BE30
:10592000C478CDBDEFAA47BD2909813E2FA318BD7C
:10593000327226BEF433753E3486993ECE1B373E16
:1059400014056ABEF52C283E9A44DD3DD600753E0E
:10595000B3252B3DF0879F3DA2F1243E7100BD3E53
:105960007D7A7C3EF27B5BBEF06C0F3D6E15AC3EEB
:10597000121374BEBEDCBFBE618A16BF446B65BE27
:10598000D3DD45BFCC7E45BF2A57B8BEFB3A80BEAB
:105990002174D0BE170D99BC58E156BDDCF5B2BDDF
:1059A00069FCA23D2EE7D23C12A3E7BCC921E23C30
:1059B00052B6C8BC774CDD3C4AD10A3ECD56DEBD5E
:1059C0007138333D9C8CAA3CE82E593E76C4E13DAB
:1059D0009FE8BABBFA9AE5BDAC56263D753CB6BE0B
:1059E0009161FDBE1409BEBE80B685BE47CCC4BE63
:1059F000263584BE3A91A0BEE2AC98BEB7D4B9BEFB
:105A0000054ED6BDC45D3D3CCC7A11BE3D8120BE65
:105A100079CE06BE8B3712BECAA65CBD3ECD09BE8E
:105A2000579317BE00589D3D9B0384BCA54F8BBD6B
:105A300036CBE5BDFDF605BEB7B5853DFF941ABE74
:105A4000B98C3BBEEB36283D2B6B5BBDC591073E49
:105A5000569A54BDD080FA3D9161B53DF164F73D51
:105A6000AF09693EA9F92A3E0C20FC3CADF9B1BD55
:105A700023BED33DC8250EBC3FA7203DD6E4A93C9C
:105A8000302DAA3DC905A73D05C4C43D5ABA823D83
:105A90002062A33D9B39643D9B1C9E3E672C4A3E81
:105AA000E337853C5AF3B33ECA6B553EB8E64EBE6B
:105AB00017D93E3ECC29813C8F53343ED95F9E3E60
:105AC000512E1D3E6DFF823E7EC770BB22DE0EBF93
:105AD0001C43A8BEEA93A4BE8B8AD8BD6AF78BBDCF
