:020000040800F2
:10000000D01100109D010008F5200008A717000876
:10001000F1200008E7060008FD3A00080000000093
:100020000000000000000000000000004521000862
:10003000EB06000800000000F72000084721000838
:10004000B7010008B7010008B7010008B7010008B0
:10005000B7010008B7010008B7010008B7010008A0
:10006000B7010008B7010008B7010008B701000890
:10007000B7010008B7010008B7010008B701000880
:10008000B7010008B7010008B7010008B701000870
:10009000B7010008B7010008B7010008B701000860
:1000A000B7010008B7010008B7010008B701000850
:1000B000B7010008B7010008B7010008B701000840
:1000C000B7010008B7010008B7010008B701000830
:1000D000B7010008853A0008B7010008B701000819
:1000E000B7010008B7010008B7010008B701000810
:1000F000B7010008B7010008B7010008B701000800
:10010000B7010008B7010008B7010008B7010008EF
:10011000B7010008B7010008B7010008B7010008DF
:10012000B7010008B7010008B7010008B7010008CF
:10013000B7010008B7010008B7010008B7010008BF
:10014000B7010008B7010008B7010008B7010008AF
:10015000B7010008B7010008B7010008B70100089F
:10016000B7010008B7010008B7010008B70100088F
:10017000B7010008B7010008B7010008000000003F
:10018000B7010008B7010008DFF80CD000F016FA3C
:100190000048004715420008D0110010064880476B
:1001A00006480047FEE7FEE7FEE7FEE7FEE7FEE75C
:1001B000FEE7FEE7FEE7FEE73122000889010008BE
:1001C0002DE9F05F0546002092469B46884606468C
:1001D000814640241BE0284641464746224600F01F
:1001E0002EF953465A46C01A914110D3114618466B
:1001F000224600F015F92D1A67EB01084F462246FA
:100200000120002100F00CF917EB00094E41201EDF
:10021000A4F10104DFDC484631462A464346BDE8E6
:10022000F09F40EA01039B0703D009E008C9121FB1
:1002300008C0042AFAD203E011F8013B00F8013BA0
:10024000521EF9D27047D2B201E000F8012B491ECC
:10025000FBD270470022F6E710B513460A46044663
:100260001946FFF7F0FF204610BD2DE9FE4F81EA49
:10027000030404F0004421F0004100944FF0000B0F
:1002800023F0004350EA01045ED052EA03045BD03D
:10029000C3F30A54C1F30A552C44A4F2F334019475
:1002A000A0FB0254C1F3130141F48011C3F3130303
:1002B00043F4801301FB024400FB034E840A970AB7
:1002C00044EA815447EA8357A4FB076802958D0AE4
:1002D00005FB07854FEA932C04FB0C542705029D70
:1002E0004FEA065847EA1637B5EB08056EEB070CE0
:1002F000870E920E47EA811742EA8312A7FB02019A
:10030000B6EB0B0164EB00042B0D43EA0C335E18D3
:1003100044EB1C50DA465146E7FB0201C5F31304D7
:100320004FEA0B3343EA14534FEA0432019C43EA89
:100330000603A4F10C040294009CCDE900B400F083
:100340009DF803B0BDE8F08F00200146F9E70EB537
:1003500040F2334102910021CDE900110A460B46DB
:1003600000F08CF803B000BDC1F30A5210B5C1F320
:10037000130140F2FF3341F480119A4201DA002068
:1003800010BD40F233439A42A2F2334203DC5242A0
:1003900000F055F810BD904010BD00F0004230F064
:1003A00000400AD0C10D01F56071C0F3160042EAA9
:1003B0000151C208400711437047002001467047B1
:1003C00030B5041E71F1000404DB4FF000444042DC
:1003D00064EB0101141E73F1000405DB1C464FF0B1
:1003E0000043524263EB04038B4208BF824230BD9C
:1003F00030B5041E71F1000404DB4FF000444042AC
:1004000064EB0101141E73F1000405DB1C464FF080
:100410000043524263EB0403994208BF904230BD4F
:10042000202A04DB203A00FA02F1002070479140B4
:10043000C2F1200320FA03F3194390407047202AA9
:1004400004DB203A21FA02F00021704721FA02F37E
:10045000D040C2F12002914008431946704710B5C0
:10046000141E73F1000408DA401C41F100019218D7
:100470005B411A4301D120F0010010BD2DE9F04D80
:1004800092469B4611B1B1FA81F202E0B0FA80F2D5
:1004900020329046FFF7C4FF04460F4640EA0A00A8
:1004A00041EA0B0153465A46084313D0114653EA1A
:1004B000010019D0C8F140025046FFF7C0FF0546C1
:1004C0000E46504659464246FFF7AAFF084305D05C
:1004D000012004E020463946BDE8F08D00200543A8
:1004E00046EAE0762C4337430A986305E40AA0EB1A
:1004F00008000022FD0A44EA47540A3002D50020D1
:100500000146E9E7010510196941DDE908450019CF
:100510006941BDE8F04DA2E72DE9F04D00231A46F0
:100520001B1A8A4103DB00200146BDE8F08DC1F3B0
:100530000A52C1F3130141F480154FF0000BD107AB
:1005400002D100186D41521E0027044640F2FF11EF
:10055000384601EB620A3E468046024600204FF4D0
:100560008011FFF76CFFC2197141BB1846EB010007
:10057000B4EB030C75EB000C04D3E41A65EB000537
:1005800017460E46241908F101006D4180463428B3
:10059000E3DDF91946EB0600091BA84103D24FF031
:1005A000FF32134601E0002213461BEB070046EB27
:1005B0000A51BDE8F04DFFF752BF0000064C074D51
:1005C00006E0E06840F0010394E807009847103423
:1005D000AC42F6D3FFF7DCFD682C0308982C030827
:1005E00010B501F0FFF810BD2DE9F04107460C46AB
:1005F0000026002509E036023919491B491E88B238
:1006000000F008F80644681CC5B2A542F3DB30468A
:10061000BDE8F08170B50446002601F0A1F9254639
:10062000E11704EB11610912A02202EB4101C8B2EB
:1006300001F064F901F0CCF9E11704EB1161091242
:10064000A4EB0121C8B201F059F901F0C1F901F0A0
:1006500087F9A12001F052F901F0BAF9002001F068
:1006600021F9064601F098F9304670BD2DE9F041B8
:1006700005460E461746002409E0E20026FA02F27B
:10068000D1B22A1990B200F006F8601CC4B2BC4284
:10069000F3DBBDE8F08170B504460E4601F060F969
:1006A0002546E11704EB11610912A02202EB41017A
:1006B000C8B201F023F901F08BF9E11704EB1161E5
:1006C0000912A4EB0121C8B201F018F901F080F978
:1006D000304601F013F901F07BF901F05DF90A20D1
:1006E00003F0A6FC70BD00BFFEE7704770B504467E
:1006F0001D460023B5F5804F13D154F822300C4825
:100700000340D1E9000640EA06108E6840EA062060
:100710008E8940EA06408E693043034344F8223014
:1007200003E06FF0704044F82200002070BD00002C
:100730000000F0CF10B503460022086853F82020CF
:1007400012480240D1E901042043CC6820430C69DF
:1007500020434C6920438C692043CC6920430C6AB8
:1007600020434C6A20438C6A2043CC6A2043CC6BE4
:1007700020430C6B204302438868082801D142F0D3
:100780004002086843F82020002010BD8000F0FFE0
:1007900030B503460024501C53F8204004F0404478
:1007A000D1E9000540EA05108D6840EA05208D89F1
:1007B00040EA0545088A401E45EA0055087D801E2E
:1007C00045EA00608D6928430443501C43F82040EB
:1007D000002030BD014691F83500022803D080206A
:1007E000486501207047052081F8350008680068D9
:1007F00020F001000A6810600020F3E7F8B5024617
:100800000B460025002400200021DCE0012606FA2A
:1008100001F51E6806EA0504AC4273D15E68012E3C
:1008200008D05E68022E05D05E68112E02D05E6888
:10083000122E13D190684F000326BE40B0434F00E4
:10084000DE68BE4030439060506801268E40B04361
:100850001E79C6F300168E4030435060D0684F00BA
:100860000326BE40B0434F009E68BE403043D06078
:100870005E68022E02D05E68122E13D1CF0802F1FC
:10088000200656F827004E07F70E0F26BE40B0434D
:100890004F07FF0E1E69BE403043CF0802F120060D
:1008A00046F8270010684F000326BE40B0431E796B
:1008B00006F003064F00BE40304310605E6806F04D
:1008C0008056B6F1805F7DD100BF00260096404E75
:1008D000366846F480463E4F3E603E46366806F433
:1008E0008046009600BF00BF3A4E8F0856F827009A
:1008F0008E07370F0F26BE40B043374EB24202D1AB
:10090000002624E05EE0354EB24201D101261EE011
:10091000334EB24201D1022619E0324EB24201D129
:10092000032614E0304EB24201D104260FE02F4ED0
:10093000B24201D105260AE02D4EB24201D106266F
:1009400005E02C4EB24201D1072600E008268F07B1
:100950003F0FBE4030431F4E8F0846F82700264EFB
:100960003068A0435E6806F48036B6F5803F00D15B
:100970002043214E3060361D3068A0435E6806F487
:100980000036B6F5003F00D120431B4E361D3060C7
:10099000361D3068A0435E6806F48016B6F5801FE9
:1009A00000D12043144E08363060361D3068A04315
:1009B0005E6806F40016B6F5001F00D120430E4E07
:1009C0000C363060491C1029FFF420AFF8BD000040
:1009D0004438024008380140000002400004024050
:1009E00000080240000C02400010024000140240C7
:1009F00000180240001C0240003C01400AB1816125
:100A000001E00B048361704701480068000C7047E7
:100A1000002004E001480068704700000400001056
:100A20000348006803490978084401490860704791
:100A3000040000100C00001010B50A48006840F4D3
:100A40000070084908600846006840F4806008604B
:100A5000032000F07FF80F2000F006F800F02AF8DD
:100A6000002010BD003C024070B504460E480078DE
:100A70004FF47A71B1FBF0F00C490968B1FBF0F565
:100A8000284600F0C1FC08B1012070BD102C07D22F
:100A900000222146501E00F01EF80548046001E0C7
:100AA0000120F2E70020F0E70C0000100000001029
:100AB00008000010704701460846002809DB00F0D6
:100AC0001F0301229A4043099B0003F1E023C3F86E
:100AD000002100BF70472DE9F05F80460D461646A5
:100AE000002703F031F8074639462A46334601F01D
:100AF0000700C0F1070ABAF1040F02D94FF0040A47
:100B000001E0C0F1070AD14600F1040ABAF1070F6B
:100B100002D24FF0000A01E0A0F1030AD4464FF0E0
:100B2000010A0AFA09FAAAF1010A0AEA020A0AFA09
:100B30000CFA4FF0010B0BFA0CFBABF1010B0BEABB
:100B4000030B4AEA0B042146404603F005F8BDE8D2
:100B5000F09F000000BF00F00702064B19684FF637
:100B6000FF031940044B0B4343EA0221014B196078
:100B700000BF70470CED00E00000FA0570B50446B8
:100B80000D460CB9012070BD5848006800F00F00F8
:100B9000A84209D255490D700846006800F00F00C0
:100BA000A84201D00120EEE7207800F002000228E0
:100BB0001DD1207800F00400042805D14C480068BD
:100BC00040F4E0504A490860207800F00800082806
:100BD00005D14748006840F46040454908604448F2
:100BE000006820F0F000A1680843414908602078BF
:100BF00000F00100A8B36068012807D13C4808381C
:100C00000068C0F34040B8B90120BCE76068022822
:100C100002D06068032807D1354808380068C0F35F
:100C2000406048B90120AEE7314808380068C0F399
:100C3000400008B90120A6E72D48006820F0030015
:100C4000616808432A490860FFF7E4FE064609E0A8
:100C5000FFF7E0FE801B41F28831884202D9032071
:100C600091E707E02248006800F00C006168B0EBF3
:100C7000810FEDD11D48006800F00F00A84209D98E
:100C80001A490D700846006800F00F00A84201D014
:100C9000012078E7207800F00400042807D11448E8
:100CA000006820F4E050E1680843114908602078AA
:100CB00000F00800082808D10D48006820F46040C2
:100CC000216940EAC1000A49086000F03FF808497C
:100CD0000968C1F30311074A515CC840064908601E
:100CE00006480068FFF7C0FE00204CE7003C0240C9
:100CF00008380240B7E202080000001008000010A7
:100D000001480068704700000000001000B5FFF7C0
:100D1000F7FF04490968C1F38221034A515CC840C6
:100D200000BD000008380240C7E2020800B5FFF726
:100D3000E7FF04490968C1F34231034A515CC840E6
:100D400000BD000008380240C7E202082DE9F04764
:100D5000002400250026A1462548006800F00C006C
:100D600020B1042805D008283AD105E0DFF88490A6
:100D700039E0DFF8849036E01D48001F006800F07D
:100D80003F041B48001F006800F4800078B11A4837
:100D90001749091F0968C1F38811A0FB01700146BA
:100DA000224600233846FFF70BFA05460EE01148AD
:100DB0000F49091F0968C1F38811A0FB01700146A2
:100DC000224600233846FFF7FBF905460848001F76
:100DD0000068C0F30140401C4600B5FBF6F902E094
:100DE000DFF8109000BF00BF4846BDE8F087000064
:100DF000083802400024F40000127A00F8B50446D6
:100E00000CB90120F8BD207800F00100002874D052
:100E1000F948006800F00C0004280DD0F64800687E
:100E200000F00C00082813D1F348001F006800F4FC
:100E30008000B0F5800F0BD1EF4808380068C0F390
:100E40004040002859D06068002856D10120D9E7D9
:100E500000BF6068B0F5803F08D1E74808380068F7
:100E600040F48030E449083908601EE06068B0F55D
:100E7000A02F0DD1E0480838006840F48020DE49FA
:100E8000083908600846006840F4803008600CE0CB
:100E9000D9480838006820F48030D74908390860FC
:100EA0000846006820F48020086000BF606890B1A8
:100EB000FFF7B0FD054606E0FFF7ACFD401B6428D8
:100EC00001D903209EE7CC4808380068C0F34040B1
:100ED0000028F1D011E0FFF79DFD054606E0FFF781
:100EE00099FD401B642801D903208BE7C2480838CC
:100EF0000068C0F340400028F1D1207800F00200E3
:100F000002285FD1BC48006800F00C0058B1BA4814
:100F1000006800F00C0008281CD1B748001F0068CA
:100F200000F48000B0B9B44808380068C0F340004D
:100F300020B1E068012801D0012063E7AE480838FD
:100F4000006820F0F800216940EAC100AA49083988
:100F5000086037E0E06800B30120A8490860FFF7A7
:100F600059FD054606E0FFF755FD401B022801D953
:100F7000032047E7A04808380068C0F34000002875
:100F8000F1D09D480838006820F0F800216940EA57
:100F9000C10099490839086014E0002097490860A9
:100FA000FFF738FD054606E0FFF734FD401B022839
:100FB00001D9032026E7904808380068C0F34000B4
:100FC0000028F1D1207800F0080008282CD16069B1
:100FD000A8B101208A490860FFF71CFD054606E01C
:100FE000FFF718FD401B022801D903200AE78248B9
:100FF0006C300068C0F340000028F1D014E00020FD
:101000007F490860FFF706FD054606E0FFF702FD91
:10101000401B022801D90320F4E677486C300068B1
:10102000C0F340000028F1D1207800F0040004282B
:1010300070D1002770483830006800F0805090B9B7
:1010400000BF002000906C483830006840F08050AD
:101050006949383108600846006800F08050009007
:1010600000BF00BF01276748006800F48070B0B976
:101070006448006840F4807062490860FFF7CAFC69
:10108000054606E0FFF7C6FC401B022801D90320F5
:10109000B8E65C48006800F480700028F2D000BF19
:1010A000A068012808D154486830006840F0010069
:1010B0005149683108601DE0A06805280DD14E48EF
:1010C0006830006840F004004B4968310860084609
:1010D000006840F0010008600CE047486830006894
:1010E00020F001004449683108600846006820F09B
:1010F0000400086000BFA068A8B1FFF78BFC05469C
:1011000009E0FFF787FC401B41F28831884202D991
:10111000032077E626E0384868300068C0F34000D6
:101120000028EED013E0FFF775FC054608E0FFF756
:1011300071FC401B41F28831884201D9032061E6ED
:101140002D4868300068C0F340000028EFD1012F1F
:1011500007D129483830006820F0805026493831BE
:10116000086000BFA069002845D02348006800F04F
:101170000C0008285DD0A069022845D100201F4935
:101180000866FFF747FC054606E0FFF743FC401BF7
:10119000022801D9032035E6174808380068C0F353
:1011A00040600028F1D1D4E907010843616A40EAB0
:1011B00081110122A06AC2EB500041EA00412C20BB
:1011C000005D41EA00600C49091F086001200B49DD
:1011D0000866FFF71FFC054606E0FFF71BFC401BF7
:1011E000022801D903200DE6034808380068C0F33F
:1011F00040600028F1D03FE008380240000047423C
:10120000800E47420070004000201C490866FFF72E
:1012100001FC054606E0FFF7FDFB401B022801D953
:101220000320EFE516480068C0F340600028F2D1C3
:1012300022E0A069012800D1E4E51148001D0668FC
:1012400006F48001E069814214D106F03F01206A72
:1012500081420FD147F6C0703040616A884209D19F
:1012600006F44031A06A814204D106F07061E06A60
:10127000814201D00120C5E50020C3E500004742BE
:101280000038024070B504460E4615460CB90120E0
:1012900070BD94F8490028B9002084F84800204621
:1012A00000F01CF804F108012068FFF743FA31460A
:1012B000A2682068FFF76CFA2946236BD4E9010283
:1012C000FFF714FAA168206850F8210040F00100EF
:1012D000A268216841F822000020D9E710B586B045
:1012E000044600BF002000903848006840F001002C
:1012F000364908600846006800F00100009000BF11
:1013000000BF00BF0020009030480838006840F05F
:1013100008002E49083908600846006800F00800F7
:10132000009000BF00BF00BF00200090084600688A
:1013300040F0100008600846006800F010000090BF
:1013400000BF00BF00BF002000900846006840F0CA
:10135000200008600846006800F02000009000BFF0
:1013600000BF00BF002000900846006840F0400029
:1013700008600846006800F04000009000BF00BF11
:101380004CF2337001900220029001200390032060
:1013900004900C20059001A90D48FFF72FFA4FF695
:1013A0008070019001A90B48FFF728FA4FF4805094
:1013B000019001A90848FFF721FA4FF480500190ED
:1013C00001A90648FFF71AFA06B010BD38380240E6
:1013D000000C0240001002400014024000180240BD
:1013E000042808D14FF0E021096941F004014FF0D1
:1013F000E022116107E04FF0E021096921F00401CA
:101400004FF0E0221161704770B504462546681E12
:10141000B0F1807F01D301200FE0681E4FF0E02182
:1014200048610F214FF0FF3002F096FB00204FF093
:10143000E021886107200861002070BD70470146E7
:101440000022002391F8392091F83A3042EA030053
:10145000704700002DE9F0470446206805682068C1
:10146000C668206847694FF00008C14605F00F08BC
:10147000B8F1000F0AD105F0200038B106F02000C5
:1014800020B1204602F082F8BDE8F087B8F1000FE5
:1014900072D007F0010018B906F4907000286BD0E4
:1014A00005F0010030B106F4807018B1E06B40F037
:1014B0000100E06305F0040030B107F0010018B14D
:1014C000E06B40F00200E06305F0020030B107F08D
:1014D000010018B1E06B40F00400E06305F0080083
:1014E00048B106F0200010B907F0010018B1E06B18
:1014F00040F00800E063E06B70B305F0200028B115
:1015000006F0200010B1204602F040F82068406943
:10151000C0F38019E06B00F0080010B9B9F1000FBA
:1015200023D0204602F012F82068406900F0400005
:10153000402816D12068406920F0400021684861A9
:10154000606B50B11748616B0865606BFFF742F93B
:1015500010B1606B016D88470CE02046FFF76EFF0D
:1015600008E02046FFF76AFF04E02046FFF766FF29
:101570000020E06388E7FFE705F0800030B106F067
:10158000800018B1204602F049FA7DE705F04000DE
:1015900030B106F0400018B1204601F0E7FF73E7D4
:1015A00000BF71E73935000810B504460CB90120B9
:1015B00010BDA06900B100E000BF94F8390028B95F
:1015C000002084F83800204600F028F8242084F811
:1015D00039002068C06820F400502168C8602046A7
:1015E00002F028F82068006920F490402168086122
:1015F0002068406920F02A00216848612068C0689E
:1016000040F400502168C8600020E063202084F886
:10161000390084F83A000020CAE7000010B586B00F
:1016200004461F492068884238D100BF002000903E
:101630001C48006840F001001A490860084600682C
:1016400000F00100009000BF00BF00BF002000902C
:1016500014481430006840F010001249143108603A
:101660000846006800F01000009000BF00BF4FF473
:10167000C06001900220029001200390022004909B
:101680000720059001A90848FFF7B8F82520FFF7C3
:1016900012FA032211462520FFF71DFA06B010BDED
:1016A00000100140303802400000024010B50346EF
:1016B00093F83A0020282FD101B10AB9012010BDBA
:1016C00000BF93F83800012801D10220F7E701207C
:1016D00083F8380000BF99629A85DA850020D863C4
:1016E000222083F83A0000BF002083F8380000BFB2
:1016F0001868C06840F480701C68E0601868406931
:1017000040F001001C6860611868C06840F020006B
:101710001C68E0600020D2E70220D0E71D4A016883
:10172000914236D11C49098801F4004189BB1A490C
:10173000098801F4804171B1184909780A2903D058
:101740000021154A118024E01349098841F4004121
:10175000114A11801DE0114909780D2906D10E4961
:10176000098841F480410C4A118012E00B49097844
:10177000094A1288C2F30D02094B99540649098897
:10178000491C054A118011460988C72901DD00213D
:1017900011807047001001406C0000106E000010B6
:1017A00008010010704700BFFEE7000010B50020E0
:1017B0000A49086000F0B4FC00200949C1F8A402FD
:1017C000022002F041FC012004490860052002F0DB
:1017D0003BFC00200249C1F8A00210BDA08240429B
:1017E0000080404200B587B000BF002001901B4838
:1017F000006840F00200194908600846006800F0DF
:101800000200019000BF00BF00BF00200190084609
:10181000006840F0020008600846006800F002001E
:10182000019000BF00BF8815029001200390049032
:101830000220059002A90A48FEF7E0FF4FF400706D
:10184000029002A90648FEF7D9FF01200549086069
:101850000549C1F8A00207B000BD000030380240C1
:1018600000040240A48240420080404210B50020A3
:101870000A49086000F054FC01200949C1F8A4029B
:10188000022002F0E1FB012004490860052002F07B
:10189000DBFB00200249C1F8A00210BDA08240423B
:1018A0000080404270B50546002400F025FC00266B
:1018B00016E000200F490860022002F0C5FB01205D
:1018C0000D49C1F8A0026006040E0A487C38006881
:1018D00008B1601CC4B2012002F0B6FB701CC6B295
:1018E000082EE6DB15B9FFF7C1FF01E0FFF75EFF49
:1018F000204670BDA08240420080404270B5044640
:1019000000F00EFC002014490860002520E004F0DF
:101910008000002804DD01200F49091D086003E054
:1019200000200D49091D08606006040E022002F027
:101930008BFB012008490860022002F085FB002093
:101940000649C1F8A002022002F07EFB681CC5B265
:10195000082DDCDB70BD0000A082404200804042C8
:1019600010B500F0DDFB0120094908600949C1F804
:10197000A002052002F068FB00200549086006204F
:1019800002F062FB00200349C1F8A00210BD000074
:10199000A48240420080404210B500F0C1FB00200C
:1019A000094908600949C1F8A402012006490860F4
:1019B000062002F049FB01200449C1F8A4020620D8
:1019C00002F042FB10BD0000A08240420080404275
:1019D00010B5002400F090FB01200E49086002F0D1
:1019E00033FB01200C49C1F8A00202F02DFB07E0F7
:1019F000601CC4B2FA2C03DDFFF7CEFF012010BD3E
:101A00000448803800680028F2D10249091F0860A4
:101A100000BFF4E7A48240420080404200B587B096
:101A200000BF002001901848006840F001001649EE
:101A300008600846006800F00100019000BF00BF88
:101A400000BF002001900846006840F010000860C8
:101A50000846006800F01000019000BF00BF1C2085
:101A60000290002003900120049002A90748FEF78D
:101A7000C5FE012002900220049002A90448FEF74E
:101A8000BDFE07B000BD000030380240001002402B
:101A90000000024010B50446012C01D12249087013
:101AA0002148007801282AD12048006801280AD05E
:101AB0001F48006838B11E48001F006818B11C4854
:101AC00008380068D8B90A2002F0B2FA0020164996
:101AD000087016480068012800D110BD144800683D
:101AE00008B90220F9E71248001F006808B903206E
:101AF000F3E70F4808380068A0B90420EDE70B4869
:101B0000006878B90A48006801280BD10848001F0E
:101B10000068012806D1064808380068012801D16C
:101B2000014908700020D8E71A0000100002404266
:101B30001002424270B506460F484088401E83B2EC
:101B40000D480088401E82B20021084600F03CF992
:101B500000240CE0002504E0304600F079FA681C0F
:101B600085B205484088A842F6DC601C84B2024871
:101B70000088A042EEDC70BD1200001000B50246E5
:101B80000F4882716AB9362000F056FA4C2000F0F6
:101B900059FA4FF4F0700A4948804FF4A070088059
:101BA0000CE0362000F048FA2C2000F04BFA4FF4FD
:101BB000A070034948804FF4F070088000BD000019
:101BC0001200001070B504460D4616462B462246FC
:101BD0002946204600F0F8F8304600F039FA70BD8A
:101BE0002DE9FF4F84B081468A4600200390029081
:101BF0000698A0EB09050798A0EB0A06CDF804901B
:101C0000CDF800A0002D01DD012705E00DB900276A
:101C100002E04FF0FF376D42002E02DD4FF0010869
:101C200006E016B94FF0000802E04FF0FF387642A8
:101C3000B54201DD2C4600E034464FF0000B21E0B8
:101C4000009A91B2019A90B200F022F803982844C9
:101C500003900298304402900398A04205DD039857
:101C6000001B03900198384401900298A04205DDC2
:101C70000298001B02900098404400900BF1010074
:101C80001FFA80FB601C8345DADD08B0BDE8F08FE9
:101C900030B504460D462B4622462946204600F024
:101CA00093F80248008800F0D3F930BD0E00001010
:101CB0002DE9F04306460F46904600244546032092
:101CC000A0EB48093CE07A1B91B2321990B2FFF7C1
:101CD000DFFF3A1B91B2721990B2FFF7D9FF3A19A0
:101CE00091B2721990B2FFF7D3FF7A1991B23219FB
:101CF00090B2FFF7CDFF7A1991B2321B90B2FFF785
:101D0000C7FF3A1991B2721B90B2FFF7C1FF7A1B5D
:101D100091B2321B90B2FFF7BBFF3A1B91B2721B1C
:101D200090B2FFF7B5FF641CB9F1000F03DAA00011
:101D3000801D814404E0601B80000A3081446D1ED8
:101D4000AC42C0DDBDE8F0832DE9F04304460D460A
:101D500016461F46DDF81C80B44201DCBD4201DDA1
:101D6000BDE8F0833B4632462946204600F02CF879
:101D7000301B401C84B2781B401C85B20BE0A94686
:101D800002E0404600F064F9B9F10000A9F1010158
:101D90001FFA81F9F5D1201EA4F101018CB2EED118
:101DA00000BFDDE710B50246012000E050430B1EE6
:101DB000A1F10104E1B2F9D110BD00000148008891
:101DC000704700008000006C30B504460D462A20A4
:101DD00000F032F9201200F035F9E0B200F032F9EB
:101DE000101200F02FF9D0B200F02CF92B2000F0E7
:101DF00023F9281200F026F9E8B200F023F91812AE
:101E000000F020F9D8B200F01DF92C2000F014F9F0
:101E100030BD00002DE9F84F80460E4617461C469F
:101E2000B3462046E31704EB5373DB1021464FEA19
:101E3000E47C04EB5C7C4FEAEC0CA4EBCC0CBCF136
:101E4000000F02D04FF0010C01E04FF0000C634492
:101E5000224604EBD27C4FEA6C0C03FB0CF3DBB2A2
:101E60000093A7F12000C7B2002556E00C2C07D143
:101E700007EB47002B4901EB800010F8059013E0B9
:101E8000102C05D1284800EB071010F805900BE046
:101E9000182C07D107EBC700244901EB800010F88C
:101EA000059001E0BDE8F88F4FF0000A2FE009F03F
:101EB000800030B11E48028831464046FFF782FE5E
:101EC00007E00A9828B91B48028831464046FFF7C8
:101ED00079FE4FEA49604FEA1069701C86B21648D5
:101EE0004088B04200DCDDE7A6EB0B00A0420AD13F
:101EF0005E4608F101001FFA80F80F48008840454F
:101F000000DCCFE706E00AF1010000F0FF0ABAF1B9
:101F1000080FCCDB00BF681CC5B200988542A5DB6A
:101F200000BFBFE7CFE2020843E7020833ED020833
:101F30000E00001010000010120000102DE9FF4FDD
:101F400081B0074691461E460E9D4FF0000A0024C0
:101F500039E0301B401EC1B20A20FFF723FFB9FB56
:101F6000F0F00A21B0FBF1F201FB1208BAF1000F08
:101F700016D1701EA04213DDB8F1000F0ED1002063
:101F8000AB4605EBDB71491001FB0471009088B290
:101F90002B4620220299FFF73DFF12E04FF0010A85
:101FA0000020AB4605EBDB71491001FB047100908A
:101FB00088B208F13001CAB22B460299FFF72AFF16
:101FC00000BF601CC4B2B442C3DB05B0BDE8F08FF3
:101FD0002DE9F84704460D4690469946DDE9096724
:101FE00004F0FF0A08EB04001FFA80F809EB050073
:101FF0001FFA80F916E0444502DB5446A81985B261
:102000004D4500DB14E0002000903A783346294625
:102010002046FFF7FFFE304606EBD07104EB61016E
:102020008CB27F1C38787E2802DC38782028E2DAEF
:1020300000BFBDE8F8870000014908807047000034
:102040007E00006C01490880704700008000006C31
:102050000112044A1180C1B24FF0D842A2F8801098
:10206000704700008000006C00B587B000BF002002
:1020700001901D48006840F020001B490860084698
:10208000006800F02000019000BF00BF00BF0020EA
:1020900001900846006840F020000860084600688B
:1020A00000F02000019000BF00BF48150290012001
:1020B000039004900320059002A90C48FEF79EFBB4
:1020C0004FF48060029002A90848FEF797FB0122B6
:1020D00051020648FEF792FC012291020348FEF7E6
:1020E0008DFC07B000BD00003038024000140240F3
:1020F00000BFFEE77047704700B585B04FF4007031
:102100000090002001900120029002200390694677
:102110000248FEF773FB05B000BD0000000402405A
:1021200000B585B04FF4007000900120019002903E
:102130000220039069460248FEF760FB05B000BD2F
:1021400000040240704710B5FEF76AFC10BD0000A5
:1021500010B504460420FFF743F90148046010BDA0
:10216000680000102DE9F04192B080460C461546FB
:102170001E46002700BF002000902A48006840F05B
:102180008050284908600846006800F080500090A0
:1021900000BF00BF00BF002000902348006840F44B
:1021A0008040214908600846006800F480400090A3
:1021B00000BF00BF012006900004079002200C9091
:1021C00041050D91CDF838800F941095119606A811
:1021D000FEF714FE07460FB100BFFEE70F20019087
:1021E00002200290002003904FF4A05004904FF47E
:1021F00080500590052101A8FEF7C0FC07460FB1ED
:1022000000BFFEE7FEF700FC41F20101884205D164
:102210000648006840F480700449086012B0BDE8C8
:10222000F08100004038024000700040003C024055
:102230000548006840F47000034908604FF00060F2
:10224000014980390860704788ED00E000B595B01D
:1022500000BF002001902848006840F00200264995
:1022600008600846006800F00200019000BF00BF4F
:102270004FF4004010900120119012900320139011
:1022800010A91E48FEF7BAFA4FF020401C4908601A
:102290001C4848600620886000211948C16001611F
:1022A0001021416100218161C16141624FF480517F
:1022B00081620021C1624FF48041016300214163CA
:1022C00081634FF48011C1630F20099000200A90B0
:1022D0003C200B9000200F900590092002900020D8
:1022E0000390082004900020089002AA09A904483D
:1022F000FEF7C8FF15B000BD3038024000040240B0
:1023000078000010040100A010B5FFF79FFF3220F5
:1023100001F08EFED020FFF78FFEFFF74FFD6449DE
:102320008880FFF74BFD624988800846818861A05C
:1023300001F0E6FBE920FFF77FFE2020FFF782FE99
:102340001120FFF779FE4FF4FA7401E0601E84B2A9
:10235000002CFBDC3A20FFF76FFE5520FFF772FEE2
:10236000D120FFF769FE0020FFF76CFE6520FFF724
:1023700069FE1F20FFF766FED020FFF75DFE0720F5
:10238000FFF760FE0720FFF75DFE8020FFF75AFE93
:102390003620FFF751FE4C20FFF754FEC120FFF717
:1023A0004BFE1020FFF74EFE1020FFF74BFE0220E1
:1023B000FFF748FE0220FFF745FEC020FFF73CFE76
:1023C0000020FFF73FFE3520FFF73CFE0020FFF71F
:1023D00039FE0020FFF736FE0120FFF733FE022012
:1023E000FFF730FEC420FFF727FE0320FFF72AFE89
:1023F000C520FFF721FE0120FFF724FED220FFF7C2
:102400001BFE0120FFF71EFE2220FFF71BFEE72028
:10241000FFF712FE3820FFF715FEF320FFF70CFE42
:102420000820FFF70FFE1220FFF70CFE1220FFF727
:1024300009FE0820FFF706FEC820FFF7FDFD01207A
:10244000FFF700FE5220FFF7FDFD3720FFF7FAFDF2
:102450001020FFF7F7FD0D20FFF7F4FD0120FFF737
:10246000F1FD0420FFF7EEFD5120FFF7EBFD772093
:10247000FFF7E8FD0120FFF7E5FD0120FFF7E2FD92
:102480000D20FFF7DFFD0820FFF7DCFD8020FFF7C0
:10249000D9FD0020FFF7D6FD2920FFF7CDFD002054
:1024A000FFF76CFB4FF6FF70FFF744FB10BD000019
:1024B00012000010204C43442049443A25780D0A6C
:1024C000000000002DE9FC5F04460D4617461E463D
:1024D000DDE90EABDDE90C894FF4784057490880FF
:1024E00057A01021CDE90010564843880288A0214A
:1024F0002820FFF76DFD54A01021CDE900105148B0
:1025000043880288A0217820FFF762FD4FA01021A8
:10251000CDE900104B4843880288B4212820FFF7FA
:1025200057FD4BA01021CDE9001046484388028892
:10253000B4217820FFF74CFD46A01021CDE9001012
:10254000404843880288C8212820FFF741FD42A067
:102550001021CDE900103B4843880288C82178202B
:10256000FFF736FD3DA01021CDE900103548438826
:102570000288DC212820FFF72BFD39A01021CDE9AE
:102580000010304843880288DC217820FFF720FDC6
:1025900034A01021CDE900102A4843880288F02198
:1025A0002820FFF715FD102004232246A0210090CB
:1025B0004020FFF7C3FC102004232A46A0210090EE
:1025C0009020FFF7BBFC102004233A46B421009072
:1025D0004020FFF7B3FC102004233246B4210090C2
:1025E0009020FFF7ABFC102004234246C821009046
:1025F0004020FFF7A3FC102004234A46C821009086
:102600009020FFF79BFC102004235246DC21009011
:102610004020FFF793FC102004235A46DC21009051
:102620009020FFF78BFC102003230090F021602006
:10263000109AFFF783FCBDE8FC9F00000E0000101D
:1026400078313A001200001079313A0078323A00BD
:1026500079323A0078333A0079333A0078343A00E4
:1026600079343A006661632069733A0000B597B027
:10267000002012900B9012901F21FE4801804FF60F
:10268000FF71FD4801800846FFF754FA4FF4784186
:10269000F84801804FF6FF70FFF74CFA0020F5492B
:1026A0000880F648006810216423A022CDE90010BC
:1026B00028210846FFF78CFC4FF478421421084685
:1026C00000F054FC0020EE4988869FEDEE0A084693
:1026D00080ED0E0A46E2EA4840680A9001200A9915
:1026E0008847E74890F8340000F0C00040287AD1CD
:1026F00000200B90E248808E20F04000E049888660
:102700000846818913AA129822F82010DC48018C0F
:10271000129802EB800041801298401CC0B21290C7
:102720001298012806D0022815D0032829D00428A1
:1027300010D141E04FF6FF721421084600F016FC5C
:10274000D1480088143880B24FF4784214210A909E
:1027500000F00CFCE5E3CC480088143880B24FF65A
:10276000FF7214210A9000F001FCC7484088143819
:1027700080B24FF4784201460A90142000F0F6FB34
:10278000CFE3C1484088143880B24FF6FF7201464B
:102790000A90142000F0EAFBBB484088143880B24D
:1027A0000A90B9480088143880B24FF478420990F2
:1027B0000A9900F0DBFBB4E3BDF84C10BDF8500003
:1027C000081A0A90002801DB0A9801E00A984042A2
:1027D0000F90BDF84E1013A8C088081A0A90002860
:1027E00002DB0A9802E09DE30A9840420E900F989F
:1027F00040430F900E9840430E90DDE90E100844C0
:102800000590FDF7A4FDCDE906019DED060B01F055
:10281000B7F98DED080B9DED080B51EC100BFDF792
:10282000A3FD80B21190BDF85400BDF85810401AB5
:102830000A90002801DB0A9801E00A9840420F90B4
:1028400013A84189C089081A0A90002801DB0A9858
:1028500001E00A9840420E900F9840430F900E9866
:1028600040430E90DDE90E1008440590FDF76FFD22
:10287000CDE906019DED060B01F082F98DED080B07
:102880009DED080B51EC100BFDF76EFD80B2109022
:102890009DED110AF8EE400A9DED100AB8EE401ABF
:1028A00080EE810A8DED0A0A0A98FDF776FDCDE9E2
:1028B0000C019FED760B53EC102B9DED0C0B51ECA6
:1028C000100BFDF77DFD0ED39FED720B53EC102B1B
:1028D0009DED0C0B51EC100BFDF78AFD03D3119805
:1028E00008B11098F0BB0020129067484088143857
:1028F00080B20A9064480088143880B24FF6FF72A4
:1029000009900A9900F032FB4FF4784214210846EE
:1029100000F02CFB9FED610B53EC102B9DED0C0B8D
:1029200051EC100BFDF7A1FCCDE908019DED080B62
:1029300051EC100BFDF718FD80B213A90A90C9895C
:10294000BDF8582013AB5B89CDE90132CDE9031006
:10295000BDF85400009013A8C0880990BDF850003D
:10296000089000E00AE0BDF84E000790BDF84C006A
:10297000069007A90EC9FFF7A5FDE2E2BDF84C10CD
:10298000BDF85400081A0A90002801DB0A9801E0FB
:102990000A9840420F90BDF84E1013A84089081ABB
:1029A0000A90002801DB0A9801E00A9840420E9044
:1029B0000F9840430F900E9840430E90DDE90E10A3
:1029C00008440590FDF7C3FCCDE906019DED060B1B
:1029D00001F0D6F88DED080B9DED080B51EC100BB6
:1029E000FDF7C2FC80B21190BDF85010BDF8580040
:1029F000081A0A90002801DB0A9801E00A98404270
:102A00000F9013A8C188C089081A0A90002801DB1A
:102A10000A9801E00A9840420E900F9840430F90A8
:102A20000E9840430E90DDE90E1008440590FDF726
:102A30008EFCCDE906019DED060B01F0A1F88DEDB0
:102A4000080B9DED080B51EC100BFDF78DFC80B2CF
:102A500010909DED110AF8EE400A9DED100AB8EEB7
:102A6000401A80EE810A8DED0A0A0A98FDF795FC5E
:102A700018E000000E00001010000010E82B030802
:102A80001C00001000000000120000106666666660
:102A90006666EE3FCDCCCCCCCCCCF03F0000000045
:102AA00000005940CDE90C011FED080B53EC102B31
:102AB0009DED0C0B51EC100BFDF782FC0AD31FEDC2
:102AC0000B0B53EC102B9DED0C0B51EC100BFDF789
:102AD0008FFC48D200201290F7484088143880B20A
:102AE0000A90F5480088143880B24FF6FF720990BA
:102AF0000A9900F03BFA4FF478421421084600F09E
:102B000035FA1FED1A0B53EC102B9DED0C0B51EC0D
:102B1000100BFDF7AAFBCDE908019DED080B51EC68
:102B2000100BFDF721FC80B213A90A90C989BDF8EA
:102B3000582013AB5B89CDE90132CDE90310BDF814
:102B40005400009013A8C0880990BDF85000089068
:102B5000BDF84E000790BDF84C00069007A90EC9BD
:102B6000FFF7B0FCEDE1BDF85000BDF85410401A7D
:102B70000A90002801DB0A9801E00A9840420F9071
:102B800013A8C1884089081A0A90002801DB0A9816
:102B900001E00A9840420E900F9840430F900E9823
:102BA00040430E90DDE90E1008440590FDF7CFFB81
:102BB000CDE906019DED060B00F0E2FF8DED080B5F
:102BC0009DED080B51EC100BFDF7CEFB80B2119080
:102BD000BDF84C00BDF85810401A0A90002801DBDF
:102BE0000A9801E00A9840420F90BDF84E1013A8D1
:102BF000C089081A0A90002801DB0A9801E00A98A7
:102C000040420E900F9840430F900E9840430E9014
:102C1000DDE90E1008440590FDF799FBCDE90601AA
:102C20009DED060B00F0ACFF8DED080B9DED080B44
:102C300051EC100BFDF798FB80B210909DED110A3E
:102C4000F8EE400A9DED100AB8EE401A80EE810AB7
:102C50008DED0A0A0A98FDF7A0FBCDE90C011FEDE6
:102C6000750B53EC102B9DED0C0B51EC100BFDF77D
:102C7000A7FB0AD31FED790B53EC102B9DED0C0B2A
:102C800051EC100BFDF7B4FB49D2002012908A489A
:102C90004088143880B20A9087480088143880B27F
:102CA0004FF6FF7209900A9900F060F94FF47842EC
:102CB0001421084600F05AF91FED880B53EC102B35
:102CC0009DED0C0B51EC100BFDF7CFFACDE908018F
:102CD0009DED080B51EC100BFDF746FB80B2014651
:102CE0000A9013A8C289BDF8580013AB5B89CDE9DF
:102CF0000130CDE90321BDF85400009013A8C0882D
:102D00000990BDF850000890BDF84E000790BDF83E
:102D10004C00069007A90EC9FFF7D4FB11E1BDF8DE
:102D20005000BDF84C10401A00EE100AF8EEC00A30
:102D300061480088283800EE100AB8EEC00A80EE1C
:102D4000201A5E4880ED0E1ABDF85000BDF84C10F8
:102D5000084400EE100AF8EEC00A5748008800EE5A
:102D6000100AB8EE400A554890ED0E1A01EE600ABE
:102D7000F0EE000A80EE201ABDEEC10A10EE100A35
:102D800001B24E48A0F8401013A84089BDF84E107B
:102D9000401A00EE100AF8EEC00A4748408828386A
:102DA00000EE100AB8EEC00A80EE201A434880ED0B
:102DB0000F1A13A84089BDF84E10084400EE100AFF
:102DC000F8EEC00A3C48408800EE100AB8EE400A0F
:102DD0003A4890ED0F1A01EE600AF0EE000A80EE1C
:102DE000201ABDEEC10A10EE100A00B23349A1F854
:102DF0004200084690ED0E0ABDEEC00A8DED090AAC
:102E00000998002801DB099801E00998404202284E
:102E10000FDC2A4890ED0F0ABDEEC00A8DED0A0ABC
:102E20000A98002801DB0A9801E00A98404202282B
:102E300054DD0020129020484088143880B20A9057
:102E40001D480088143880B24FF6FF7209900A9925
:102E500000F08CF84FF478421421084600F086F810
:102E600017A01021CDE90010134840880A9012489D
:102E70000088099002461A2128200A9BFFF7A8F82B
:102E80000E4890F8440008B9012000E000200B49EA
:102E900081F84400084690F8440030B190200D4974
:102EA0000870D0210C48017005E0D021094801705C
:102EB00090200949087044E0120000101C00001026
:102EC0005450204E65656420726561646A75737440
:102ED0002100000064000010650000101F211B4845
:102EE00001804FF6FF70FEF725FE19A01021CDE9F5
:102EF00000101D4840880A901B480088099002462F
:102F00006E2123200A9BFFF763F84FF47A7001F0DB
:102F10008FF800F031FA4FF6FF70FEF70BFE17B096
:102F200000BD00BF0A2001F083F80B98401C80B25E
:102F30000B900B98B0F57A7F02DD00F04FF802E0BD
:102F400000BFFFF7C8BB00BF00BFE8E70E000010DE
:102F5000546F7563682053637265656E2041646ABF
:102F6000757374204F4B21001200001070B5044699
:102F70000D4616461848068004F10D018AB219392B
:102F800088B22B462946FEF72BFE05F10D0083B2D1
:102F9000193881B222462046FEF722FE6A1C91B201
:102FA000621C90B2FEF774FE6A1C91B2621E90B26F
:102FB000FEF76EFE6A1E91B2621C90B2FEF768FECA
:102FC0006A1E91B2621E90B2FEF762FE0622294688
:102FD0002046FEF76DFE70BD0E00001010B5D52026
:102FE000FDF718FB04460A2C48D10421C820FDF740
:102FF000FBFA044600EE104AB8EEC00ADFED200AE4
:1030000080EE201A1F4880ED0E1A0421CC20FDF717
:10301000EBFA044600EE104AB8EEC00ADFED180ADB
:1030200080EE201A174880ED0F1A0221D020FDF7FC
:10303000DBFA00B21349A1F840000221D220FDF7CB
:10304000D3FA00B20F49A1F84200D420FDF7E2FA0A
:103050000C4981F84400084690F8440030B19020B3
:1030600009490870D0200949087005E0D0200649B8
:103070000870902005490870012010BD0020FCE771
:1030800020BCBE4C1C000010640000106500001045
:1030900000B587B000BF002001903248006840F0C2
:1030A0000200304908600846006800F00200019004
:1030B00000BF00BF00BF002001900846006840F03C
:1030C000040008600846006800F00400019000BF9A
:1030D00000BF00BF002001900846006840F02000BB
:1030E00008600846006800F02000019000BF00BFA3
:1030F00006200290002003900120049003200590F8
:1031000002A91948FDF77AFB01200290039002A959
:103110001548FDF773FB4FF40050029002A91348C5
:10312000FDF76CFB4FF40060029002A91048FDF718
:1031300065FB1049A1F1140000F0A6F8FDF750FA64
:10314000FFF74CFF10B1002007B000BD4FF6FF7035
:10315000FEF7F0FCFFF78AFA00F00EF9FFF73EFFEA
:103160000120F1E73038024000040240000802402C
:10317000001402403C00001070B5064600250024F3
:1031800000201E4908601E49C1F8AC021D490860B4
:10319000304600F0ABF9062000F056FF00201A4937
:1031A000C1F88002012000F04FFF012013490860A0
:1031B00000F04AFF00201449C1F8800200BF15E06A
:1031C0004FF6FF7000EA440400200C49086001201B
:1031D00000F03AFF01200C49C1F880020748783816
:1031E000006808B1601C84B2681CC5B2102DE7DB12
:1031F0002411012003490860204670BD80824042AE
:1032000000804242B4024142008040422DE9F04138
:1032100094B080460027002406E04046FFF7ACFF4C
:103220002DF81400601C84B2282CF6DB002416E074
:10323000601C85B20FE03DF814003DF8151088427F
:1032400007DD3DF814603DF815002DF814002DF849
:103250001560681C85B2282DEDDB601C84B2272C1C
:10326000E6DB0027012404E03DF814000744601C5D
:1032700084B2272CF8DB2620B7FBF0F086B230466C
:1032800014B0BDE8F08100002DE9F04104460D4680
:1032900007480078FFF7BAFF064606480078FFF7B0
:1032A000B5FF074626802F800120BDE8F081000091
:1032B00064000010650000107FB504460D4602A9A9
:1032C00003A8FFF7E1FF064616B9002004B070BD61
:1032D000694601A8FFF7D8FF06460EB90020F5E7BA
:1032E000BDF80400BDF80C10884206DCBDF80C10D7
:1032F000BDF80400323081420CDBBDF80C00BDF893
:103300000410884236DCBDF80410BDF80C003230E1
:1033100081422FDABDF80000BDF80810884206DCB3
:10332000BDF80810BDF80000323081420CDBBDF85A
:103330000800BDF8001088421CDCBDF80010BDF884
:1033400008003230814215DABDF80C10BDF80420B7
:10335000881800EBD071C1F34F012180BDF808102F
:10336000BDF80020881800EBD071C1F34F0129800F
:103370000120ABE70020A9E710B51D4890ED0E0A2B
:10338000DFED1C0A20EE200ABDEEC00A10EE104A46
:1033900004222146C820FDF769F9154890ED0F0A6F
:1033A000DFED140A20EE200ABDEEC00A10EE104A2E
:1033B00004222146CC20FDF759F90D48B0F9401000
:1033C0000222D020FDF752F90948B0F9421002223A
:1033D000D220FDF74BF9064890F84410D420FDF7B1
:1033E0005AF90A242146D520FDF755F910BD0000F1
:1033F0001C00001020BCBE4C10B5044639480068C3
:1034000000284DD12CB13849A1F11400FFF754FF29
:1034100035E03549A1F11400FFF74EFF78B332488B
:103420002038B0F9400000EE100AB8EEC00A2E486D
:10343000203890ED0E1A808900EE900AF8EE600AAE
:1034400001EE200ABCEEC00A10EE100A264920390F
:1034500088810846B0F9420000EE100AB8EEC00AB2
:10346000084690ED0F1A008C00EE900AF8EE600A04
:1034700001EE200ABCEEC00A10EE100A08841A48B9
:10348000203890F8340000F0800020BBC02016499E
:1034900020398886084681898182018C01851AE05D
:1034A0001148203890F8340000F0800040B10E48F8
:1034B0002038808E20F080000B49203988860AE071
:1034C000002109482038818201854FF6FF700649A6
:1034D0002039888108840448203890F8340000F0AE
:1034E000800010BD048240423C00001070B50446CC
:1034F000002500BF17E004F0800018B101200B493F
:10350000086002E00020094908606006040E0020FF
:1035100007490860012000F097FD01200549C1F826
:103520008002681CC5B2082DE5DB70BDAC8242424A
:10353000808240420080404270B50546AC6B00205E
:10354000E085E0842046FDF779FF70BD0168C96819
:1035500021F490710268D1600168496921F001018C
:1035600002685161202180F83A10704710B5044676
:103570002068C06820F040002168C860202084F8DE
:1035800039002046FEF70EF9002010BD70B5044644
:1035900094F83A0022284AD1A068B0F5805F13D190
:1035A000A56A206940B920684068C0F308002880F7
:1035B000A06A801CA06219E020684068C0B2288020
:1035C000A06A401CA06211E0206938B920684068F8
:1035D000C1B2A26A501CA062117007E02068406866
:1035E00000F07F01A26A501CA0621170E08D401EA5
:1035F00080B2E085C8B92068C06820F0200021684A
:10360000C8602068C06820F480702168C8602068A5
:10361000406920F0010021684861202084F83A00C8
:103620002046FEF77BF8002070BD0020FCE702205A
:10363000FAE700002DE9F84F04462068006920F4FD
:103640004050E1680843216808612169A068084387
:1036500061690843E169084300902068C06849F245
:103660000C618843009908432168C860206840695C
:1036700020F44070A169084321684861E069B0F511
:10368000004F75D1E3492068884203D0E2492068A1
:1036900088426FD1FDF74AFB814602206168A0FB9A
:1036A00001510B461920A9FB00712A463846FCF748
:1036B00087FD6421B0FBF1F04FEA001A0220616837
:1036C000A0FB01510B461920A9FB00712A46384680
:1036D000FCF776FD074602206168A0FB01510B460E
:1036E0001920A9FB00B12A465846FCF769FD642160
:1036F000B0FBF1F000EBC00101EB0010A7EB800084
:10370000322101EBC0006421B0FBF1F000F0F800C1
:103710000AEB400A02206168A0FB01510B46192008
:10372000A9FB00712A463846FCF74AFD07460220ED
:103730006168A0FB01510B461920A9FB00B12A4684
:103740005846FCF73DFD6421B0FBF1F000EBC001F1
:1037500001EB0010A7EB8000322101EBC0006421D7
:10376000B0FBF1F000F007005044216888604FE1A1
:103770006EE0FFE7FDF7CAFA814602206168A0FB10
:1037800001510B461920A9FB00712A463846FCF767
:1037900017FD6421B0FBF1F04FEA001A02206168C6
:1037A000A0FB01510B461920A9FB00712A4638469F
:1037B000FCF706FD074602206168A0FB01510B469D
:1037C0001920A9FB00B12A465846FCF7F9FC6421F0
:1037D000B0FBF1F000EBC00101EB0010A7EB8000A3
:1037E000322101EBC0006421B0FBF1F000F0F800E1
:1037F0000AEB400A02206168A0FB01510B46192028
:10380000A9FB00712A463846FCF7DAFC074602207D
:103810006168A0FB015003461920A9FB00B12A46AC
:103820005846FCF7CDFC6421B0FBF1F000EBC00181
:1038300001EB0010A7EB8000322101EBC0006421F6
:10384000B0FBF1F000F00700504421688860DFE031
:1038500070492068884203D06F49206888426BD144
:10386000FDF764FA814604206168A0FB01510B4614
:103870001920A9FB00712A463846FCF7A1FC8246B4
:1038800004206168A0FB01510B461920A9FB0071BF
:103890002A463846FCF794FC6421B0FBF1F000EBBB
:1038A000C00101EB0010AAEB8000322101EB0010F7
:1038B0006421B0FBF1F000F0F00A04206168A0FB85
:1038C000015003461920A9FB00712A463846FCF72F
:1038D00077FC6421B0FBF1F00AEB001A0420616868
:1038E000A0FB01510B461920A9FB00712A4638465E
:1038F000FCF766FC074604206168A0FB0150034604
:103900001920A9FB00B12A465846FCF759FC64214E
:10391000B0FBF1F000EBC00101EB0010A7EB800061
:10392000322101EB00106421B0FBF1F000F00F0038
:103930005044216888606BE0FDF7E8F98146042077
:103940006168A0FB015003461920A9FB00712A46BB
:103950003846FCF735FC824604206168A0FB015024
:1039600003461920A9FB00712A463846FCF728FCBB
:103970006421B0FBF1F000EBC00101EB0010AAEBF9
:103980008000322101EB00106421B0FBF1F000F067
:10399000F00A04206168A0FB015003461920A9FB2E
:1039A00000712A463846FCF70BFC6421B0FBF1F0AD
:1039B0000AEB001A04206168A0FB0170034619207D
:1039C000A9FB005001463A462846FCF7F9FB07469A
:1039D00004206168A0FB015003461920A9FB00B137
:1039E0002A465846FCF7ECFB6421B0FBF1F000EBF3
:1039F000C00101EB0010A7EB8000322101EB0010A9
:103A00006421B0FBF1F000F00F00504421688860A1
:103A1000BDE8F88F0010014000140140014691F804
:103A2000390021282CD18868B0F5805F0FD10A6A4F
:103A30001088C0F308000B685860086918B9086A54
:103A4000801C086209E0086A401C086205E00B6AF5
:103A5000581C086218780B685860C88C401E80B2E9
:103A6000C88458B90868C06820F080000B68D86026
:103A70000868C06840F040000B68D86000207047BC
:103A80000220FCE710B500240C48FDF7E3FC00BF62
:103A900001E0641C00BF0948FDF7D1FC2028F8D1E3
:103AA00000BF002401E0641C00BF01220449034858
:103AB000FDF7FCFD0028F6D100BF10BDC8000010C6
:103AC0006E00001010B5044609480A49086008460F
:103AD000446000218160C160016181610C2141610C
:103AE000FDF762FD012204490248FDF7DFFD10BD2C
:103AF00000100140C80000106E00001000BFFEE77B
:103B00000FB4054B10B503A9044A029800F08AF8D7
:103B100010BC5DF814FB0000BD41000870000010EF
:103B20000FB4084B10B504A902AA039800F07AF864
:103B3000044602A9002000F0D5F9204610BC5DF82B
:103B400014FB0000E53E000802480068C0F30220B4
:103B5000704700000CED00E010B5002804DB0A07F8
:103B6000130E054A135406E00A07140E034A00F028
:103B70000F031B1FD45410BD00E400E018ED00E05B
:103B800000B52DED048BB0EE409AF0EE609A83B054
:103B900051EC190BFCF7C0FC41EC180B18EE100AA5
:103BA00018EE901A8DED008B002818BF01200843F5
:103BB00020F00040C0F17F6000F1E040C00F14D061
:103BC00019EE101A19EE900A8DED009B002918BF0E
:103BD0000121084320F00040C0F17F6000F1E04087
:103BE000C00F04BF012000F017F8B0EE480A03B080
:103BF000F0EE680ABDEC048B00BD02E008C8121F9D
:103C000008C1002AFAD170477047002001E001C1C5
:103C1000121F002AFBD1704701490860704700005D
:103C2000740000102DE9FF4F8DB09B460F460446EF
:103C3000002606E025280BD05A460F999047641CB1
:103C4000761C20780028F5D111B03046BDE8F08F01
:103C50000025A8460122984900E0054314F8013FD9
:103C6000203B02FA03F00842F7D120782E2817D122
:103C700014F8010F45F004052A280ED06FF02F022A
:103C80002078A0F1300109290AD808EB880102EB5D
:103C9000410100EB0108641CF2E757F8048B641C37
:103CA00020786C280DD004DC4C2812D06A2811D161
:103CB00004E074280DD07A280CD10AE045F40015F0
:103CC00007E0617845F48015814202D1641C05F556
:103CD0008015641C2278692A45D008DC002AB3D0FC
:103CE000582A69D0632A10D0642A08D13BE0702A90
:103CF00067D0732A13D0752A5CD0782A5CD010461E
:103D00005A460F999047761CD3E017F8040B8DF8AC
:103D1000000000208DF80100E946012003E057F87B
:103D2000049B4FF0FF3069074FF0000501D40AE013
:103D30006D1C45450DDA8542FADB19F8051000299E
:103D4000F6D106E06D1C8542FCDB19F80510002950
:103D5000F8D12E4404E019F8010B5A460F99904708
:103D60006D1EF8D2A5E00A200021CDE90801C5F3B7
:103D7000025002280DD001CFC117031E71F10003BC
:103D80000DDA4FF0000CD0EB0C006CEB01012D2391
:103D900008E0FF1D27F00707F7E80201EDE72B0514
:103DA00004D52B238DF8283001233BE0EB0739D0D5
:103DB0002023F7E70A2000E010200021CDE90801C8
:103DC00007E01020002145F00405CDE908014FF07F
:103DD0000808C5F3025002280FD001CF00214FF090
:103DE000000A2B071FD5702A0DD0DDE908C38CF01F
:103DF000100C5CEA030C0CD015E0FF1D27F0070740
:103E0000F7E80201EBE740228DF828204FF0010A85
:103E10000BE050EA010306D030238DF828308DF8EE
:103E2000292002239A46582A04D024A20DF1200901
:103E30000B9209E026A2F9E7DDE90823FCF7C0F9B7
:103E40000B9B9B5C09F8013D50EA0102F4D1ADEBFC
:103E5000090020300890680701D44FF00108089944
:103E6000884502DDA8EB010000E000208046002527
:103E700006E00AA85A46405D0F9990476D1C761CD3
:103E80005545F6DB04E030205A460F999047761CE2
:103E9000B8F10001A8F10108F5DC05E019F8010B03
:103EA0005A460F999047761C0899481E0890002999
:103EB000F4DC641CC5E6000009280100303132330F
:103EC0003435363738396162636465660000000056
:103ED0003031323334353637383941424344454640
:103EE000000000000A68531C0B601070704700004F
:103EF0002DE9F0472DED048B04469FED4B0AF0EEC3
:103F0000408A9FED490AB0EE409A9FED470AB0EE15
:103F1000408A00202CE0002127E0C0EBC00201EB2A
:103F2000820204EB8202D2ED000AB0EE600AB5EE26
:103F3000C00AF1EE10FA17DD00EE901AB8EEE01AA2
:103F4000F0EE680A41EE000AF0EE608A00EE900A98
:103F5000B8EEE01AF0EE490A41EE000AB0EE609ABF
:103F600078EE000AB0EE608A491C1C29D5DB401CA3
:103F70001C28D0DBB5EEC08AF1EE10FA03D1BDECFF
:103F8000048BBDE8F08788EE880AF6EE000A30EE72
:103F9000200ABDEEC00A10EE105A89EE080AF6EEAD
:103FA000000A30EE200ABDEEC00A10EE106AC5F11C
:103FB0000E07C6F10E081FB9B8F1000F00D1DEE7F9
:103FC0004FF444611948FCF745F9002022E0002134
:103FD0001DE0CA1900EB0803002A17DB1C2A15DABA
:103FE000002B13DB1C2B11DAC0EBC00C01EB8C0C8B
:103FF00004EB8C0C9CED000AC3EBC30C02EB8C0CA5
:10400000DFF8289009EB8C0C8CED000A491C1C2968
:10401000DFDB401C1C28DADB4FF4446203492046F6
:10402000FCF7FFF800BFAAE70000000060090020CD
:1040300030B50446002504E04FF47A7000F004F82F
:104040006D1CA542F8D330BD70B5034600224FF079
:10405000E02675690D4E366803FB06F44FF0E02646
:10406000B16910E04FF0E026B06988420BD0884279
:1040700002D20E1A324402E02E1A0E443244014695
:10408000A24200D300E0EDE700BF70BD6800001061
:104090001CB54FF478403149088031A01021CDE99A
:1040A000001031484388028800210A20FDF790FF64
:1040B0002EA01021CDE900102B494B880A880988D1
:1040C000373988B21921FDF783FF1F200090264859
:1040D00043884088103881B28B227820FDF734FE67
:1040E0004FF478400090204843884088103881B2CF
:1040F0009F228C20FDF728FE4FF61F0000901A48E3
:1041000043884088103881B2B322A020FDF71CFEFE
:104110004FF4FC600090144843884088103881B206
:10412000C722B420FDF710FE47F6FF7000900E483E
:1041300043884088103881B2DB22C820FDF704FE96
:104140004FF6E0700090084843884088103881B2EC
:10415000EF22DC20FDF7F8FD1CBD00000E00001072
:10416000436861723A20000012000010434C454140
:1041700052000000F0B504460D4616464FF0FF30E1
:1041800019E04FF0FF3113E062182B18002A0EDB04
:10419000542A0CDA002B0ADB542B08DA0127C3EB74
:1041A000C30C0CEB4C0C02EB8C0C06F80C70491C8D
:1041B0000129E9DD401C0128E3DDF0BD00BF054A0F
:1041C000126802F04002002AF9D0C2B2014B5A60D4
:1041D00070470000001001401CB50020064908800F
:1041E00006A01021CDE900100948438802880A2161
:1041F0000846FDF7EDFE1CBD0E000010546F756300
:1042000068205465737420454D4E49535400000096
:104210001200001088B04FF01F090024A046FCF7E0
:104220000BFC072302224FF4A8710820FDF79AFF28
:10423000A820FDF78DFF4FF4E130FFF743FCFDF7B9
:1042400013FFFEF761F8FDF7E9FBFEF721FFFFF72B
:10425000C3FF4FF4FA60FFF7EBFE4FF6FF70FDF778
:1042600069FCFFF715FF1FE10020FDF713FC07466F
:10427000012F09D1FEF7FAF94FF6FF70FDF75AFC4E
:10428000FFF706FF0024A0460020FFF7B5F800283E
:104290007ED086488589068C052D40DB052EFCDB0B
:1042A00083480088401FA84239DD81484088401F6C
:1042B000B042F9DDB8F1030F16DD002C14DD40F239
:1042C0005720844210DA601E7A4931F820004FF6F8
:1042D000FF71884208D00846764921F8240001EB96
:1042E00084014880601C84B24FF000087048008848
:1042F0003C38A84214DA3C2E12DA4FF6FF700090D8
:104300006B484088401E83B269480088401E82B2D4
:1043100000210846FDF718FDFFF7BAFE00245CE017
:10432000634840881238B04221DA61484088B04280
:104330001DDDDC2D02DD4FF6E0794EE0C82D02DDFB
:1043400047F6FF7949E0B42D02DD4FF4FC6944E003
:10435000A02D02DD4FF61F093FE08C2D02DD4FF44A
:1043600078493AE0782D38DD4FF01F0935E006F145
:10437000020C1FFA8CF305F1020C1FFA8CF2A6F165
:10438000010C1FFA8CF1A5F1010C1FFA8CF000E072
:1043900027E0CDF80090FDF7D7FCB4F5167F1CDAC6
:1043A0009CB1601E434931F820004FF6FF718842EE
:1043B0000BD0601E3F4931F82000A84205D1601E95
:1043C00001EB80004088B04207D03A4820F82450E2
:1043D00000EB84004680601C84B20220FFF728FEB8
:1043E00062E008F101001FFA80F80A20FFF720FEC2
:1043F000B8F1500F58D1012C56DD2F4A21462D48D7
:1044000000F07CF8FCF706FB06462B4800F0EAF9C2
:104410000546FCF7FFFA8246002D43DB2F2D41DADB
:104420002648405D8DF81C0000208DF81D00AAEB89
:1044300006039DF81C20294621A0FFF761FB4FF6DB
:10444000FF7010236E22002100904A20FDF77CFCB3
:104450004FF478402649088007A81021CDE90010C4
:1044600013484388028800214A20FDF7B1FDAAEBDA
:10447000060220A102A8FFF753FB4FF6FF7024238A
:104480007822142100900A20FDF75EFC02A810217A
:10449000CDE9001006484388028814210A20FDF760
:1044A00097FD00BF002400BFDEE600001C000010E6
:1044B0001200001000000020704D012088E2020868
:1044C00050726564696374656420696E6465783AE6
:1044D0002025642C20436861723A2025632C2054E7
:1044E000696D653A20256C756D730D0A000000003A
:1044F0000E000010256C756D730000002DE9F74F5C
:104500002DED068B8CB0044689464FF44461149817
:10451000FBF7A0FEB9F1000F04D10CB0BDEC068B87
:10452000BDE8FE8F4FF6FF700B9000200A904FF60B
:10453000FF70099000200890079000BF31E034F828
:1045400020104FF6FF72914200D128E034F820206D
:104550000B998A4202DA34F820100B9134F82020AB
:104560000A998A4202DD34F820100A9104EB800196
:104570004A8809998A4203DA04EB80014988099143
:1045800004EB80014A8808998A4203DD04EB80012C
:10459000498808910799491C89B2079100BF411CBD
:1045A00088B24845CBDB079800B9B6E7DDE90A01D8
:1045B000401A00EE100AF8EEC08ADDE90801401A40
:1045C00000EE100AB8EEC09AF4EEC98AF1EE10FAC5
:1045D00002DDB0EE680A01E0B0EE490AF0EE409A62
:1045E000F5EEC09AF1EE10FA03D1B7EE000AF0EE44
:1045F000409A9FED790A80EE298A68EE880AB0EE2B
:10460000001A80EE810ADFED750A30EEC0AA69EE6D
:10461000080AB0EE001A80EE810ADFED700A70EE33
:10462000C0AA41F690316E48FBF714FE4FF0FF37F9
:10463000384606904FF000088EE034F828004FF618
:10464000FF71884202D14FF0FF3781E034F8281023
:104650000B98081A00EE100AF8EEC00AB0EE4A0AEB
:1046600000EE880ABDEEC00A10EE105A04EB880076
:1046700041880998081A00EE100AF8EEC00AB0EE58
:104680006A0A00EE880ABDEEC00A10EE106A002D1C
:1046900000DA0025532D00DD5325002E00DA002618
:1046A000532E00DD5326781C002849D0E81B002833
:1046B00001DB014600E041420591AF4201DA0120F1
:1046C00001E04FF0FF3004900699701A002801DBDA
:1046D000014600E04142494203910698B04201DAA6
:1046E000012001E04FF0FF3002900399059800EBA4
:1046F000010A0097DDF818B01FE0394A59460098C2
:10470000FFF738FD0098A84202D1B34500D115E06B
:104710004FEA4A00019003990198884205DB03980B
:1047200082440499009808440090059901988842B1
:1047300003DC0598824402988344DEE700BF04E06E
:10474000274A31462846FFF715FD2F46069600BF3B
:1047500008F101001FFA80F8C845FFF66EAF00208F
:1047600033E000212EE00022002317E0002512E0B4
:1047700001EB41062E4400EB400C9C44CCEBCC0CEE
:104780000CEB4C0C06EB8C06DFF854C01CF80660F2
:1047900006B1521C6D1C032DEADB5B1C032BE5DB11
:1047A00000EE102AB8EEC00AF2EE020A80EE201ADD
:1047B000C0EBC00301EB8305149B03EB850383ED82
:1047C000001A491C1C29CEDB401C1C28C9DB14988C
:1047D000FFF78EFB00BFA0E60000704200002842F9
:1047E000A01500202DE9F0430646002052E00021EC
:1047F0004DE0002248E0C94B03EB800393ED001A23
:10480000B0EE410A002322E000241DE0151901EB5F
:10481000030CCCEBCC0C05EB8C0506EB8505D5ED3C
:10482000001A00EBC00503EB430C65442544DFF898
:10483000F0C20CEB850595ED002AB0EE401A01EEB2
:10484000821AB0EE410A641C032CDFDB5B1C032BD5
:10485000DADBB5EEC00AF1EE10FA02DDB0EE401A76
:1048600001E09FEDB01A1A2343431A24634301EB7E
:10487000810404EBC10403EB44031344AA4C04EB8E
:10488000830383ED001A521C1A2AB4DB491C1A292F
:10489000AFDB401C1028AADB00224BE0002046E0E2
:1048A000002141E09FEDA11AB0EE410A002325E06E
:1048B000002420E01A2555434FF01A0C05FB0CF597
:1048C00003EB400C0CEB8C0808EBCC0C05EB4C0517
:1048D00004EB410C6544DFF850C20CEB8505D5EDC7
:1048E000001AB0EE611AB4EEC01AF1EE10FA01DD52
:1048F000B0EE410A641C022CDCDB5B1C022BD7DB14
:1049000002EB820303EBC20303EB830404EBC30358
:1049100000EB800404EBC00423440B44844C04EB00
:10492000830383ED000A491C0D29BBDB401C0D28C5
:10493000B6DB521C102AB1DB00206CE0002167E0DE
:10494000002262E07B4B03EB800393ED001AB0EE94
:10495000410A002339E0002434E000252FE003EB76
:10496000830C0CEBC30C0CEB8C0808EBCC0C01EBB0
:10497000040808EB880909EBC808C44402EB0508E1
:10498000C444DFF8AC8108EB8C0CDCED001A4FEA74
:10499000001C0CEBCC0C03EBC308C44404EB440830
:1049A000C444AC44DFF8908108EB8C0C9CED002AE9
:1049B000B0EE401A01EE821AB0EE410A6D1C032DD2
:1049C000CDDB641C032CC8DB5B1C102BC3DBB5EEFA
:1049D000C00AF1EE10FA02DDB0EE401A01E09FEDE0
:1049E000511A00EB400303EBC00303EB430404EB59
:1049F000C30301EB410404EBC104234413444F4CB3
:104A000004EB830383ED001A521C0B2A9ADB491C2A
:104A10000B2995DB401C202890DB002246E000207B
:104A200041E000213CE09FED411AB0EE410A002335
:104A300026E0002421E002EB420505EBC20505EB70
:104A4000450C0CEBC50503EB400C0CEB4C0808EBDC
:104A5000CC0C654404EB410C6544DFF8E0C00CEB82
:104A60008505D5ED001AB0EE611AB4EEC01AF1EE6C
:104A700010FA01DDB0EE410A641C022CDBDB5B1C8A
:104A8000022BD6DB02EB820303EB830300EB8004F3
:104A900023440B442A4C04EB830383ED000A491C96
:104AA0000529C0DB401C0528BBDB521C202AB6DBD5
:104AB0000027DFED1E0A00202AE0224901EB8001D9
:104AC00091ED001AB0EE410A002115E01C4A02EBFC
:104AD0008102D2ED001AC1EB011202EB4112024435
:104AE000194B03EB820292ED002AB0EE401A01EE60
:104AF000821AB0EE410A491CB1F5487FE6DBB4EEFC
:104B0000E00AF1EE10FA02DDF0EE400A0746401C22
:104B10002F28D2DB3846BDE8F08300008C4D00081A
:104B20004C4B00080000000030310020EC78ADE074
:104B3000B0160120CC950008CC4D000830DA0020DA
:104B4000F0400120CCE102084C9600089CC4A0BDB6
:104B5000CF66C53E944CCE3E40DFB63D47E40BBF2A
:104B60000EA2F5BEC939313E2D948C3E732D7A3E8E
:104B7000B7B4DA3D2098233E67D6FA3E90A2EE3DC8
:104B80008AE3883EFD4BB2BDE833D03ECD92A03DD6
:104B90006937A23E53AFB33E6FD545BE09C6893EC5
:104BA000D7BF1B3EA16802BF7CD41FBEEB6E9E3EEA
:104BB0003C83163E00ABA33DF38EA33EF88ACE3D68
:104BC000AA7CCF3B2DEA0B3F2BDE483C1ABF503E60
:104BD00097FDCA3EB0594E3E88F46B3E344B923E30
:104BE000613837BE61A97EBEA35CBA3E3F1B893ED9
:104BF000BEC117BD71AF6CBE84BCBEBE6EC2193FD4
:104C0000E0BA4A3F59DB643FACA821BFE4F5103F4E
:104C1000191CA53D69A8B7BF8AC7BDBE98859CBFB2
:104C2000A7051FBFC1E43A3FEDEF4C3F5913573F73
:104C30006877C83C041DCDBDAED98ABD01DE66BF14
:104C40005C3B09BFF12A5BBFFE43FABC787F943E10
:104C5000AF0A883FFF756EBEC45B87BEF0DCB33E13
:104C6000CDC9BBBE704295BF65DE3A3E12D937BE94
:104C70009FE941BF6B8278BF7A35E03DEDBAD73D01
:104C800000C891BED47E1F3FC03E023F23BA633F9F
:104C90001AC0FB3DBC22983D5DF91C3F7F6C0ABFEA
:104CA00029B351BEF5681A3FC79D22BFCFF58DBE0F
:104CB000BE9F063F8C846ABF2FC0D6BE4CE1813EAA
:104CC000446C60BF2654B8BE2122693F1AC31CBD84
:104CD000F64592BE1651633F309FC43EB8CE6F3E3C
:104CE0002A00E6BDECDEB2BEE71D673E5AF579BE8E
:104CF00065FB103DF566543B3A950C3F9431AABFD5
:104D00005376FABE85D2233F392766BEFF08E33DBE
:104D10000552563F912A8A3EA245263FDCD9D7BD8F
:104D2000554BFABD55A357BE27DA15BE4B78323E18
:104D3000412C3B3E4297703E1B13123ED6C638BEF6
:104D4000234BCEBE52D4013F3FA788BE01A224BF51
:104D50002BBE5D3F58E407BE50FC50BF67452C3F5B
:104D60002639703E3542C7BEBDC305BF0CE534BE13
:104D700039D1CE3DBE17EFBE1AA2D2BE6EDC92BEB6
:104D800054E3A5BC438F80BE029D09BF718D4FBB0C
:104D9000E36FFB3C94FA32BBDA032DB91E1B01BB57
:104DA000CFBB613E747CB43A87F9F2BB4A96933A22
:104DB000F818ACBAF83592BB5DA3E5BA6F9F05BE93
:104DC0008D0C623ECDAC253972FA623F0D89FB3CF9
:104DD000595143BE98F64DBCF033AE3C904C17BED3
:104DE00068E6C9BD1F852B3E917E7B3D0665DA3D99
:104DF0008D9A2FBC46B47DBEB5FAEA3CEDF22DBDCE
:104E0000E9D756BE2732B3BD9143443CAAF3A8BBB1
:104E10000E2D723D7634CE3DD4481BBE5F95AB3D22
:104E2000B58A7E3BDE710ABCDA72AEBCB1FB8E3C49
:104E3000F698E83D7EA7E93DDAC78ABC113501BE88
:104E40007F4CEB3C745D783D37DF08BC50FE0EBEF6
:104E5000E2E8EABD3E26D2BCA8A905BE6326F13D24
:104E6000338BB0BD1FA2013EDFDD0A3D6B4A723DB0
:104E70004B9287BD61E1A43DAEEFC3BC73DBBEBC0A
:104E8000263940BE4B3AFABED907B1BEE1CE053C49
:104E9000EAB363BE59A5B4BDDB34B63C81CE443E13
:104EA0001A173E3ED3DA44BE26A61BBEB2670FBE1B
:104EB000DFDF80BEC5AC8FBEF0BECABDFB5CC5BE29
:104EC0009F7121BD67EF3CBE3695C53DF52EDE3D99
:104ED00086CA973E1AA4703EB85CBD3DAE7EEC3DDE
:104EE00067ED763D2637EA3D5DFA17BDEE7AE9BCFF
:104EF00077BA73BD9963293E718F15BE87FD9EBD3C
:104F0000D00C223D43588DBCA38F793D39F0EA3D4A
:104F100005A3923B6E4EA53C89B5783E79EB7C3D6E
:104F2000B935C93D6BBA5E3E467B3C3CBE2FCE3D9B
:104F3000C83FB33C4F58A23D0BCFFBBEF5496E3E78
:104F4000B5338C3E643EB8BE1CD0223ED2A6A23EF3
:104F5000A7B3B33DFCC23B3E67D5073EC901FBBDCD
:104F60000C237D3D52B9C93D15553F3C7DB222BD54
:104F70007159A53D08C8173E38BAAA3DF54AD9BDB2
:104F80001459DBBE86C9B4BDBFB62E3E687685BE59
:104F90009221073D1AA2923EA40011BDDF6B983EFC
:104FA0006D597EBDD6FFF9BD60C955BE192021BE21
:104FB000D0B60ABEC1730FBE1007893D81CFAFBD09
:104FC0000B7F36BE6D00463E882C523EAA285EBD41
:104FD000B4E8BD3D734BEB3EDF6A1D3BCB83AC3E7B
:104FE000C0AF093F20F0C0BD5D8B36BE65894E3C29
:104FF00037A752BEBBD197BE05F979BEE753A7BD0F
:10500000910EEFBD28B983BE943219BE5320B33C34
:105010007923D33D6EBE813E6E3400BC600643BE34
:105020001D71483C68EB503E1CD218BE8B8C8EBC68
:10503000611BB1BD38DBFCBDCD599FBB734B8BBD34
:1050400072872DBE28D2FDBCA5BC16BD8D4167BEA2
:1050500084B717BE6C930ABCE4D6A43DB248F33DB6
:10506000EE40FD3D4B046ABDEB8FD03D1D8E963E5C
:105070002B132EBE6075E4BD933700BD323C76BC69
:10508000AC01CA3D60B09BBC72F90FBE0090133DED
:10509000685D333EB77AB6BEB403CEBD7748713D86
:1050A000CD780B3E874D543E96ED433D7F87A2BAA7
:1050B0005C213C3E2217843EE23C0CBE3354C53C8E
:1050C0007027B1BDF18092BE6A33C6BEDE3EAB3BF7
:1050D00067B66BBE842C0FBFEE21613C15E39CBD0F
:1050E000EBAA20BE774B223EF2B6923E6B0F833E78
:1050F00028EEB8BD1CB241BD7809CEBDEA7781BDAE
:1051000085D031BEF818AC3A41F2CEBC662D353EA2
:105110000CAED13E24473A3D1536333E0B9B913EB3
:10512000E355563E1A35DF3C6AF6303E302A29BD3B
:1051300042ED8F3E5A68873EC93C723C1EFD9FBEC1
:105140004DA1BB3E79B1A83E213F9BBC685E0EBE1F
:1051500034DA2ABC05500C3B56F2513ECBBCB5BDEF
:105160002DD06E3C1975CD3DEAB4AE3D331803BE6B
:105170002E1C383EC2A6AEBDB2D565BD35B51C3EAF
:1051800065FE11BD22C530BEA8718F3D575CFC3D48
:1051900076374FBE539621BDB0E7CBBDB3F0F53C9B
:1051A00039B7493EBEA0A5BD45D65ABD0CCE403E3E
:1051B00025CF053ED99300BED1E723BDC90266BD08
:1051C000D97A86BA643AB43DC5C7873D8D9613BE79
:1051D000A3ADAABD9A051A3E1B0D00BE2940543D41
:1051E0008B6C27BDE8D9ACBC831888BD98184BBB25
:1051F00004E8F7BC931A5A3D4B1F3A3B2B353BBD95
:105200004BAC8C3DF4C3E8BD4EEC613D2882F03ED2
:10521000D3A1273F56D6B63DD3861F3F2979713F8C
:105220004773CC3E41110B3FFFE9BEBED2C8EFBE73
:105230000308EFBE371AF0BE3E5999BEB647FFBE0F
:10524000C7F20EBF0BD161BE21B14DBE0ABF943D66
:105250008EB0283DEB01933EB96F953D6F4B14BE68
:10526000BDC222BE2CB80F3EDEC6863D158B8FBE5A
:1052700034D7893D4CE2AC3D0B7CC53D64B2183E51
:10528000DDED7ABDD6E4E9BD9F58A7BBF96445BA08
:105290009BAFC2BED1768C3D7FDE143D776A3E3E29
:1052A000E63DAE3D011764BD5A8337BD7860103EC0
:1052B00022356D3DE546B1BDBB45203D185B88BC40
:1052C000CA6F51BCA3920A3E1B627CBDD02607BDAB
:1052D00039D3243E266DAA3C679CCEBE043A933C4B
:1052E0001F2CA3BD4C6E143D5CC93E3E3F71403D3A
:1052F0006AA4453E07404C3ED8BA54BD2A3A72BE15
:1053000053CD843EEE96E4B8FCFFF8BDF5BB883E75
:10531000EF8FD7BDAE2A8BBE98C1083E4034733B99
:105320006A2E37BE0611293CCCB5683EB076143FD4
:10533000732CEFBD424294BD0A1085BD88F310BEA8
:10534000487003BEEE5E6E3E210123BDFEB4F13D0A
:10535000751EE53EBD3AC73818B420BED34CF73DA4
:10536000772C363DFB3BFBBD27C1B33E7041A6BE4B
:10537000ED99E5BD1404973E4277E1BEC32D53BFBE
:10538000B16A503D8AAB22BF5182DEBE03ED2ABF17
:1053900077F4BFBB3389DA3D802D9F3E32C9E83DAB
:1053A000C078063DDCBA2B3ED237A93DE9814FBD1E
:1053B0005308E4BBA3B136BD709ABE3DE73A7D3ECB
:1053C000B03A323E88631DBE0C3AE13D1B9FD93E88
:1053D000F9305BBEECDADEBD4B06C03DC90391BCC3
:1053E0003DD7173E08E7133E85EE923C57EA59BD7C
:1053F000118E993DDECC28BD779DD5BE78F269BD72
:105400003CF974BB5D6BEF3D58A9A03C8B6CE7BCCD
:105410000E9F74BE89EB483E48C058BE5AB82CBD9A
:10542000922202BE215BA6BE35D0BCBDB64CA6BD45
:10543000122E04BE484F31BE12D80CBE2F338CBD85
:10544000790196BD184424BD7D4090BEFD2D31BE2E
:10545000CDABC23E0AD8CE3DB9C2BBBCD0B6CA3E67
:105460003EB2993E0743CD3EABEAEDBE1D03C2BE40
:10547000691DC5BE2E2024BF8EAEBABEC1C58ABE70
:105480001712C0BEF162A9BE363A87BD5796E83DF5
:105490009BE64D3E5AD467BD3DD1053E9B702FBD66
:1054A00037FE04BE7CB9B7BEF3AD6FBED09ABFBDA8
:1054B0004E7C953DD00ACC3D6C7AD0BC06F5CD3DF6
:1054C0007061DD3AE564E2BB4302AEBEE76EF7BD54
:1054D000A185843DE5EF5E3C03249A3D42B2E0BDE8
:1054E0007024D0BB925C0E3E35D2A2BE2349E8BEEA
:1054F0000C956FBEEE430EBECCB6933D69510F3E88
:105500005A29E4BD0D36F53DD845013EB66405BEC9
:1055100062F709BFA1868FBE867478BD65E0803CC6
:10552000DA55083DCDCA36BEBC23633DC7F52FBD55
:10553000A1BE85BE5281BBBE3D822BBE81CEACBE1C
:10554000C2F7DE3D67D3113D67ED9E3E3C6CE2BD88
:10555000D5E8D53AE5D5993EBF2AF7BD04E2BD3E70
:1055600064059F3E7DB01CBE05FB2FBC5C729CBDDC
:105570004DD9693CC1A8243C5E2BA13CB458CA3E1D
:10558000EDEFCC3E0BF05D3DB1329ABCBC78DF3D17
:10559000174983BE0CCE803D9DF5A93C005326BE25
:1055A000AE2A4B3ECD58B4BD76A6F0BE3AADDB393F
:1055B000295D3ABE47E788BFD61AA2BEC138B0BE41
:1055C000551364BFDE558F3E4D2EFE3E9C6E393E18
:1055D0009C89E93D4F5A383DD04428BE8A3D243E3F
:1055E000ACC52739C4EAB7BEFF5E8ABD506D90BE18
:1055F000CD5A6ABE137E693EC85EC73E7E02A83D94
:10560000BE69FA3CF29811BEA032BEBD6284D0BE23
:10561000D9247FBEDD60283E012FD33D5ABDC33D56
:105620004F1F013DAD4F393E2D5F57BD7E3923BE23
:1056300078D0A4BE38DC67BE35286ABED28C853EE1
:10564000878B6C3EB9E262BD3D9894BC7498AF3CC8
:10565000226E6EBEEDD408BFD3696DBEEA58CD3E52
:105660006493FCBA06BE62BDC7D73EBE8DB8C0BD4E
:1056700097A9C9BC589101BE7711E6BDE9B8FABD3A
:105680000937B9BD72C1393E24D3A13DA9BC0D3F34
:105690002B51B6BDDECCE8BDAD4D633E074181BFA9
:1056A0000DA601BF7CD3D4BE23F51E3DD53F083DDA
:1056B0003AB187BCD80FF1BD4E5F4FBC89D404BE50
:1056C0001C954B3EC89A91BDB3252BBD2233573E46
:1056D000B08D083E4BAE823DF9F5A3BD92921EBD42
:1056E00089B48DBC1494A2BDA20E6BBD47ADD03D54
:1056F00022A559BBB5873DBBE78D93BC06A021BE53
:10570000CB64B8BDA41860BD12D9C7BD662F9BBDC0
:10571000CC44113DB4CB273E836BEEBB1EFA6E3DED
:105720001E701D3D902FA1BD79E7D0BC7C44CC3CC0
:10573000AC1CFABD4182123E69AD183E2D27A1BBBB
:10574000CFA2B7BD417D4B3BF48B52BDE17D153DF2
:1057500047AC25BEAE8228BE622E293D11C8453E0B
:10576000CB66AE3D4641B03D541E7D3E7AE0833D62
:10577000378B473ED6AD1EBD45D9BBBD47ADB03D0D
:10578000F244D03D28BBF1BE16311CBF193B013E8F
:1057900094C210BF005895BE4299763ED95B6A3ECE
:1057A000D926053ED524283FA018F13ECE4F31BE64
:1057B0004D9F093FD6C919BD5D32EEBE1FBF373CB4
:1057C00040C30BBEC5E4A5BE111BCCBDDFC0243E4B
:1057D0000E312E3E5EF7D63C643D753DA8E0303D6F
:1057E000C6A69DBED50499BED7868A3D66BB1E3F20
:1057F0001651A33E28D54EBEF9A23D3DA9A40EBE2A
:105800008A92C8BE4BC9723DE6EA0FBFA4A6EDBEA0
:10581000EB1B28BEC11B92BD4831203E537BB1BD5E
:10582000986CBC3D7D76C03D4608AFBD6F2FE9BC8E
:1058300049D5263EF260CBBDCE1CD2BDD999B2BEB1
:105840007159B5BEB28495BE7B86B03D1CD16D3E0C
:1058500081B3643EBBD6363F1F68053E5820FA3CF4
:105860000E30F33CA33B88BC105C853D919CAC3D65
:1058700097C990BD0A67B7BC601F4D3EB3CFA33D2B
:10588000887FD8BB2BBDF6BD7D7896BB09A9BBBD73
:1058900010E7213D7766923E57CFA13EEEB3DA3E48
:1058A000E57BC63CE1EFD7BD15AB66BE4628B63CEE
:1058B00094DD4C3BA323B93C1F6A0BBE1D56B83C7C
:1058C000F25B743D62F389BE3D2A2EBEF1D6D93D0E
:1058D0007C0FAFBEBD3AC7BAD95EF33E18CFA0BDAC
:1058E000130EE53E5E4A0D3F42062ABF2CF56CBE04
:1058F000DFDE85BEE1EBD3BE3943E9BE0FD07DBE0E
:105900000FD6BFBE069F9EBE9A78AFBE420A0E3E1D
:10591000C631123E16C3353E1BDAE0BD89EED9BC56
:10592000F838D33B6EFAD33DD784743D7363FA3CA9
:1059300003995DBD1E6B063D2A73F33DFB5D68BE9A
:105940003A94A1BBA06E203CDE8FDBBC66C059BD83
:10595000FF41843DB58DBFBC26E5EE3DD34CF73D00
:10596000D82D9ABE8AE5963BDE8D053D02D57FBDDA
:105970005B7BDF3D698EAC3D9BCAC2BD3C83063C70
:10598000A113E23DDA908FBED97A863B191E7BBC0B
:10599000475A2ABECFDAADBD29CE51BDF46E8C3D3B
:1059A0002E910B3D0DC3E73DC2DCCEBD0ABF14BD39
:1059B0008812ED3D4511D2BC4FE61FBD3A1ED33DC6
:1059C0007C9998BE69C527BEFDA208BF8F1998BEF5
:1059D0000C9494BEB2494EBF158D35BEECF91ABE7B
:1059E0004D4E6DBB1A511A3D22E14B3EBC94823E96
:1059F0006688433E5166E33DBB46E3BE2AC51E3E74
:105A0000B98A55BED40FD2BE49D8373ED5B49B3ED5
:105A10009373B23EDBA3273EE411DCBBB1A5E73DA7
:105A2000E030513B637B2DBE4FB2953D8CDCBB3EDD
:105A3000B3B3803EBE842ABE73F5033E1C0B4ABE40
:105A40004546DFBE5E82E33E98BF423E15E03BBC6A
:105A5000280F0B3EC8403E3E1D75143E9EF092BC82
:105A600044A6DCBD4F21273E8FFDCC3DB53477BD2C
:105A7000793D983E74B42A3D5C3E923BC5E663BCDA
:105A800027BE4ABE3DB635BE7D94B13DFCC3763ED1
:105A90009C33C23D895FC93EAB5C283CFF05023D9B
:105AA000E410013E8290ECBD1AF93C3CA5BF17BD45
:105AB0004D85783D723788BBA839793D971F38BD31
:105AC000B8C9E83DA52EB9BDF1A194BE724F97BDEE
:105AD000062A23BDCE70833D5E84893D7671B33E38
